:020000040800F2
:1000000020430020A50100087D330008C33100080B
:10001000A53200083D090008073C00080000000068
:1000200000000000000000000000000001010008C6
:10003000290E00080000000045010008F9350008FD
:10004000BF010008BF010008BF010008BF01000890
:10005000BF010008BF010008BF010008BF01000880
:10006000BF010008BF010008BF010008BF01000870
:10007000BF010008BF010008BF010008A90A00086D
:10008000BF010008B50A0008BF010008BF01000851
:10009000BF010008BF010008BF010008BF01000840
:1000A000BF010008AD360008BF010008BF0100080D
:1000B000BF010008BF010008BF010008BF01000820
:1000C000BF010008BF010008BF010008BF01000810
:1000D000BF010008213B0008BF010008BF01000864
:1000E000BF010008BF010008BF010008DFF80CD005
:1000F00000F0A8FB00480047A5430008204300206B
:10010000204B19680868B0E8F00F80F30988BFF346
:100110006F8F4FF0000080F311884EF00D0E704786
:100120000000000006480068006880F3088862B696
:1001300061B6BFF34F8FBFF36F8F00DF00BF00BF0B
:1001400008ED00E0EFF30980BFF36F8F0D4B1A68E5
:1001500020E9F00F106008B54FF0500080F31188CF
:1001600004F06AFF4FF0000080F31188BDE80840FA
:1001700019680868B0E8F00F80F30988BFF36F8F43
:10018000704700BF48000020EFF311804FF050018E
:1001900081F31188704780F311887047EFF3058071
:1001A000704700000648804706480047FEE7FEE724
:1001B000FEE7FEE7FEE7FEE7FEE7FEE7FEE7FEE717
:1001C00065360008ED000008202A04DB203A21FAF9
:1001D00002F00021704721FA02F3D040C2F1200260
:1001E000914008431946704740EA01039B0703D03A
:1001F00009E008C9121F08C0042AFAD203E011F866
:10020000013B00F8013B521EF9D27047D2B201E027
:1002100000F8012B491EFBD270470022F6E710B50B
:1002200013460A4604461946FFF7F0FF204610BD64
:1002300080EA010210B502F00043400022D04A00DB
:100240001FD0010E01EB1261C0F35600C2F356023B
:1002500040F4000042F40002A0FB022000047F39B9
:10026000140400D0401C50EA124001D44000491E42
:10027000C2B20C0604EBD010401C4008802A02D009
:1002800003E0002010BD20F00100002900DA00206A
:10029000184310BD30B480EA010202F0004530F08E
:1002A000004221F0004013D090B1C30DD40DC2F331
:1002B0001601C0F31600E41A41F4000140F40002F4
:1002C0007D34914201D3641C00E04900002C02DA25
:1002D00030BC002070474FF400000023914201D34E
:1002E000891A034340084FEA4101F7D151B19142C5
:1002F00002D14FF0004105E002D24FF0010101E0D0
:100300006FF0010103EBC450284430BC00F006BA82
:10031000420005D0C0F3C7525242914201DC002096
:10032000704700EBC15070472DE9FE4F804681EACF
:100330000300C00F0C46009021F0004123F000455F
:10034000B8EB0200A94105D24046214690461C4622
:100350000B46024623F00040104347D0270DC7F359
:100360000A00C3F30A510290401A019040286BDA48
:10037000C3F3130040F4801B0098924620B1002381
:10038000D2EB030A63EB0B0B01985946C0F1400214
:10039000504600F0A2F906460D4650465946019ACD
:1003A00000F0AAF910EB08006141002487EA11521D
:1003B00084EAE7731A4340D0009A62B3019A012A93
:1003C0004FEA075215DC001B61EB02014FF00042BF
:1003D00002EA0752CDE90042001C41F58011324685
:1003E0002B4600F0E1F903B0BDE8F08F404621460E
:1003F000F9E7001B61EB0201001C41F580130018B6
:100400005B412018A2F5001747EB030140EAD570C5
:10041000B6196D4111E06D084FEA360645EAC07520
:100420004FEA0752001B61EB0201001C41F58011ED
:1004300049084FEA30000019514132462B4603B0BB
:10044000BDE8F04F00F0A1B9009801224000002360
:10045000D0EB020263EBE073009821464FEAE074B0
:10046000B8EB000061EB0401E9E783F000435BE7D0
:1004700081F0004158E72DE9FE4F81EA030404F0C2
:10048000004421F0004100944FF0000B23F00043A2
:1004900050EA01045ED052EA03045BD0C3F30A546D
:1004A000C1F30A552C44A4F2F3340194A0FB025486
:1004B000C1F3130141F48011C3F3130343F4801318
:1004C00001FB024400FB034E840A970A44EA81546C
:1004D00047EA8357A4FB076802958D0A05FB078549
:1004E0004FEA932C04FB0C542705029D4FEA065853
:1004F00047EA1637B5EB08056EEB070C870E920E30
:1005000047EA811742EA8312A7FB0201B6EB0B010F
:1005100064EB00042B0D43EA0C335E1844EB1C50D3
:10052000DA465146E7FB0201C5F313044FEA0B33E9
:1005300043EA14534FEA0432019C43EA0603A4F150
:100540000C040294009CCDE900B400F02DF903B036
:10055000BDE8F08F00200146F9E72DE9F04D81EA72
:10056000030404F0004B21F0004514464FF0000A4C
:1005700023F0004150EA050220D054EA01021DD0C8
:10058000C5F30A570246C5F31303C1F31300C1F3C1
:100590000A5640F4801543F48013A7EB0608101B9D
:1005A000D64608F2FD3873EB050002D308F10108C6
:1005B00001E092185B41B8F1000F03DA0020014618
:1005C000BDE8F08D00204FF48011064684460EE011
:1005D000171B73EB050705D3121B63EB05030643DB
:1005E0004CEA010C49084FEA300092185B4150EA8E
:1005F0000107EDD152EA030012D082EA040083EA37
:100600000501084305D0101BAB4106D2012200238F
:1006100006E000224FF0004302E06FF001025310A9
:100620001AEB06004CEB085110EB0A0041EB0B01F2
:10063000BDE8F04D00F0A9B8C10F80EAE0700844B1
:10064000CA079623002100F072B8C1F30A5210B510
:10065000C1F3130140F2FF3341F480119A4201DAF1
:10066000002010BD40F233439A42A2F2334203DC31
:100670005242FFF7A9FD10BD904010BD00F00042AE
:1006800030F000400AD0C10D01F56071C0F31600D2
:1006900042EA0151C2084007114370470020014659
:1006A000704701F0004330B421F0004150EA0102EC
:1006B00006D00A0DA2F56072C1F31301002A02DC14
:1006C00030BC00207047440F44EAC104C100E01868
:1006D00030BC00EBC25000F021B8202A04DB203AE5
:1006E00000FA02F1002070479140C2F1200320FA85
:1006F00003F3194390407047202A06DBCB17203ABA
:1007000041FA02F043EAE07306E041FA02F3D04016
:10071000C2F1200291400843194670470029A8BF42
:100720007047401C490008BF20F00100704710B41A
:10073000B0FA80FC00FA0CF050EA010404BF10BCCF
:10074000704749B1CCF1200421FA04F411FA0CF1FC
:1007500018BF012121430843A3EB0C01CB1D4FEA35
:1007600000614FEA102042BF002010BC704700EB30
:10077000C35010440029A4BF10BC7047401C49005E
:1007800008BF20F0010010BC704710B5141E73F1B3
:10079000000408DA401C41F1000192185B411A4341
:1007A00001D120F0010010BD2DE9F04D92469B468D
:1007B00011B1B1FA81F202E0B0FA80F22032904633
:1007C000FFF78BFF04460F4640EA0A0041EA0B019F
:1007D00053465A46084313D0114653EA010019D034
:1007E000C8F140025046FFF7EFFC05460E46504662
:1007F00059464246FFF771FF084305D0012004E047
:1008000020463946BDE8F08D0020054346EAE076F3
:100810002C4337430A986305E40AA0EB0800002242
:10082000FD0A44EA47540A3002D500200146E9E7B0
:10083000010510196941DDE9084500196941BDE864
:10084000F04DA2E7064C074D06E0E06840F00103DA
:1008500094E8070098471034AC42F6D3FFF74AFCFF
:10086000C45B0008E45B000870B521F0004303435B
:100870000CD0C1F30A550024D5EB040564EB040346
:10088000D617AD1AB34102DB0020014670BD201817
:1008900041EB025170BD0EB5C10F80EAE070084413
:1008A000CA07002140F233438DE80E000A460B468A
:1008B000FFF77AFF03B000BD0EB540F2334102915D
:1008C0000021CDE900110A460B46FFF76DFF03B08A
:1008D00000BD70B5C1F30A5201F000450024C1F318
:1008E000130140F2FF3341F480119A4201DA0020F3
:1008F00070BD40F233439A42A2F2334203DC5242CB
:10090000FFF762FC00E090402C43F1D0404270BD04
:1009100013B50446204602F015FA1228FAD02046F4
:1009200002F010FA3228F5D06423012201A92046F2
:1009300002F0E0FB032800D000201CBDFEE7000011
:1009400010B50749002000F021F80649012000F009
:100950001DF80549022000F019F8002010BD000024
:1009600052B8DE3FAE47E13F5C8FC23E10B5044651
:100970000168002000F00AF80120616800F006F824
:100980000220A16800F002F8002010BD2DE9F0411E
:10099000354E364F364D0C4630B3012843D0022831
:1009A00060D13448844202DD3348844200DB04468F
:1009B00009212046FFF7ACFCFFF760FE32463B46BC
:1009C000FFF7CBFDFFF741FE84B20022202128462D
:1009D00000F0E8FE204600F059F8012220212846C8
:1009E000BDE8F04100F0DEBE2448844202DD244828
:1009F000844200DB044609212046FFF789FCFFF70B
:100A00003DFE32463B46FFF7A8FDFFF71EFE84B2CF
:100A100000228021284600F0C5FE204600F036F86E
:100A200001228021DBE71748844202DD1648844218
:100A300000DD044609212046FFF76AFCFFF71EFE91
:100A400032463B46FFF789FDFFF7FFFD84B20022E7
:100A50004021284600F0A6FE204600F017F80122AB
:100A60004021BCE7BDE8F081CDCCCCCCCCCCFC3F68
:100A7000000C01405C8FC23E48E13A403D0AD73E3F
:100A800052B83E408FC2F53EAE474140800510B59A
:100A9000000D010AC4B2084602F0F2FC2046BDE88F
:100AA000104002F0EDBC0000014800F0BFB90000AA
:100AB00084010020014800F0B9B90000BC01002009
:100AC00010B5046863604368102B036803D0996015
:100AD0000068C26010BD9A600068C16010BD00006F
:100AE00070B515460E46040003D1A621054803F053
:100AF000D5FBA81BFFF7A0FD01462068BDE87040AC
:100B0000FFF796BB8C0D00082DE9FC5F0D46040035
:100B100004D14FF4877167A003F0C0FB25B940F200
:100B20000F1164A003F0BAFB204600F051F9012830
:100B300005D0284600F036F90020BDE8FC9F634E42
:100B4000B4F9041000223068FFF7CAFF8046B4F9F8
:100B5000061000227068FFF7C3FF0746B4F90810BB
:100B60000022B068FFF7BCFF594E044631464046AC
:100B7000FFF790FB834631463846FFF78BFB07466D
:100B800031462046FFF786FB01900020014604F025
:100B90003DF804460E463846FFF770FD07463346DB
:100BA00022460091FFF767FC8246884600200146F6
:100BB00003F094FB044689465846FFF75FFD8B46D9
:100BC000064622464B46FFF756FC52464346FFF781
:100BD0004CFCFFF766FD04460020014603F07EFB57
:100BE00002460B4638460099FFF745FC0746884603
:100BF0000020014604F00AF832465B46FFF73BFC52
:100C00003A464346FFF790FBFFF74BFD0746314856
:100C10003149019E844201DD044602E08C4200D944
:100C20000C46874201DD074602E08F4200D90F469D
:100C30002A492B488E4201DD0E4602E0864200D949
:100C40000646DFF8A08020464146FFF723FBFFF76A
:100C500015FD254C254B2246FFF70DFC2246244B63
:100C6000FFF762FBFFF71DFD686041463846FFF75E
:100C700011FBFFF703FD644222461E4BFFF7FBFB0F
:100C800022461D4BFFF750FBFFF70BFD28601B4969
:100C90003046FFF7FFFAFFF7F1FC194A194BFFF74F
:100CA000EAFB194A194BFFF73FFBFFF7FAFCA86074
:100CB00042E700002E2E5C5372635C646174615FD6
:100CC00070726F636573732E63000000380000203C
:100CD0000000C842CDCC4C3ECDCC4CBECDCCCC3DA2
:100CE000CDCCCCBDCDCC4C3F295C8FC2F528F4BF18
:100CF000F528FC3F0AD7F33F0AD7FB3F9A99193FE3
:100D00001E85EB51B81EF53F9A9999999999F93F2B
:100D100070B5042003F000FF0F4C2060042003F0A6
:100D2000FBFE6060042003F0F7FEA06022688AB139
:100D3000616879B170B1094D1046294600F010F88C
:100D40002946606800F00CF82946A06800F008F811
:100D5000012070BD002070BD38000020CDCCCC3DFE
:100D600070B50D46040003D1652108A003F096FA82
:100D70004FF07C50854201DD206070BD15F1FF4FC2
:100D800001D30020F8E7256070BD00002E2E5C53D3
:100D900072635C646174615F70726F636573732EFC
:100DA0006300000010B5040003D1DF21044803F004
:100DB00075FA04486060044820600448A06010BDD3
:100DC0008C0D0008AE47E13F52B8DE3FCDCCCC3FA2
:100DD00010B5040003D17E210DA003F05FFAB4F931
:100DE00004004FF4167100F5967088420CD8B4F9DF
:100DF000060000F59670884206D8B4F90800B0F5F0
:100E0000FA7F01DC322801DA002010BD012010BD7C
:100E10002E2E5C5372635C646174615F70726F63E9
:100E20006573732E630000007047FEE72DE9F05FE5
:100E3000DFF860820446D8F80020DFF858B2954DFC
:100E4000944E944F0068DFF84C92DFF848A20BF103
:100E5000080B1C35303644374FF400614FF4004C1A
:100E60004FF4002E09F158090AF16C0A584501D1D6
:100E7000082316E0A84201D1802312E0B04201D13C
:100E80000B460EE0B84201D163460AE0484501D165
:100E9000734606E0504502D14FF4000301E04FF0E5
:100EA00000631A4231D00268D24312072DD402687F
:100EB00022F0080202602068584501D1082114E0A0
:100EC000A84201D1802110E0B0420ED0B84201D139
:100ED00061460AE0484501D1714606E0504502D11D
:100EE0004FF4000101E04FF00061C8F80410606B9E
:100EF00040F001006063042084F82100002084F8A1
:100F00002000216B09B1204688476248D0F800C014
:100F10004FF4806120680A010B044FF4802E58457D
:100F200002D14FF0040816E0A84202D14FF0400869
:100F300011E0B04201D188460DE0B84201D190469F
:100F400009E0484501D1F04605E0504502D14FF493
:100F5000800800E098461CEA080F33D0D0F800C0A3
:100F60006FEA0C0C5FEA4C7C2CD4D0F800C05FEA2E
:100F70008C6C05D4D0F800C02CF0040CC0F800C074
:100F80002068584501D1042113E0A84201D1402135
:100F90000FE0B0420DD0B84201D1114609E04845FA
:100FA00001D1714605E0504502D14FF4800100E0C7
:100FB000194638484160112084F82100E16A09B1DE
:100FC00020468847334AD2F800C05B462068511556
:100FD0004FF4005B4FF4003E984202D14FF00208FC
:100FE00017E0A84202D14FF0200812E0B04201D130
:100FF00088460EE0B84201D1D8460AE0484501D102
:10100000F04606E0504502D14FF4001801E04FF0E1
:1010100000781CEA080F3BD0D0F800C06FEA0C0C37
:101020005FEA8C7C34D4D0F800C05FEA8C6C05D4C5
:10103000D0F800C02CF0020CC0F800C02068984224
:1010400001D1022114E0A84201D1202110E0B042D8
:101050000ED0B84201D159460AE0484501D1714647
:1010600006E0504502D14FF4001101E04FF000714D
:101070005160606B6063012084F82100002084F8D7
:101080002000A16A002903D02046BDE8F05F084790
:10109000BDE8F09F0000024070B504006ED04849E2
:1010A000206888421BD046491431884217D04449F1
:1010B0002831884213D042493C3188420FD0404900
:1010C000503188420BD03E496431884207D03C49B8
:1010D0007831884203D0B5213AA003F0DFF8606888
:1010E00040B1102806D0B0F5804F03D0B62135A00E
:1010F00003F0D4F8A068402804D018B1B72131A07B
:1011000003F0CCF8E068802804D018B1B8212DA0F5
:1011100003F0C4F8206948B1B0F5807F06D0B0F57F
:10112000007F03D0B92127A003F0B8F8606948B167
:10113000B0F5806F06D0B0F5006F03D0BA2121A0C2
:1011400003F0ACF8A06928B1202803D0BB211DA072
:1011500003F0A4F8E06960B1B0F5805F09D0B0F5A4
:10116000005F06D0B0F5405F03D0BC2115A003F0AE
:1011700095F894F82100002310B103E0012070BD20
:1011800084F82030022084F821002268116843F698
:10119000F0708143D4E901052843D4E9035635436F
:1011A000284365692843A5692843E569284308431E
:1011B00010606363012084F82100002070BD0000EE
:1011C000080002402E2E2F447269766572732F53E9
:1011D000544D3332463178785F48414C5F447269F0
:1011E0007665722F5372632F73746D333266317864
:1011F000785F68616C5F646D612E63002DE9F0417A
:10120000044690F820001D4616460F46012831D0AE
:10121000012084F82000022084F82100681E4FF687
:10122000FF71884204D340F2611113A003F036F835
:101230002068016821F0010101602B4632463946E1
:101240002046FFF73DFC2068016841F00201016083
:101250002068016841F0040101602068016841F0E4
:10126000080101602068016841F00101016000206F
:10127000BDE8F0810220FBE72E2E2F4472697665CF
:1012800072732F53544D3332463178785F48414C56
:101290005F4472697665722F5372632F73746D3376
:1012A00032663178785F68616C5F646D612E6300CF
:1012B00031B500F0ADFA044600F0AAFA0099001B1F
:1012C0008842F9D338BD00002DE9F05F434F002577
:1012D000DFF80C91DFF80CA1DFF80CB10E460446E4
:1012E000B8420DD04C450BD0544509D05C4507D0D1
:1012F0003E48844204D04FF4BC713DA002F0CEFFC2
:101300003004000C64D140F2791139A002F0C6FF1C
:101310005EE00120A840304059D0FF2801D8234684
:1013200001E004F104034FEA850201D9A2F1200291
:10133000D3F800C04FF00F0101FA02F82CEA080CB4
:101340004FF0040808FA02F84CEA080CC3F800C091
:10135000E26822EA0002E260344A25F003031A44FC
:10136000D2F808C04FEA85734FEA137301FA03F10C
:1013700001EA0C0CBC4202D14FF0000810E04C45D1
:1013800002D14FF001080BE0544502D14FF00208A2
:1013900006E05C4502D14FF0030801E04FF004087D
:1013A00008FA03F8E04512D193688B439360204913
:1013B0000A6882430A600A1D116881431160121D88
:1013C000116881431160111D0A6882430A606D1C17
:1013D00036FA05F09DD1BDE8F09F000000080140FD
:1013E000000C0140001001400014014000180140B1
:1013F0002E2E2F447269766572732F53544D3332FB
:10140000463178785F48414C5F4472697665722F47
:101410005372632F73746D3332663178785F68610D
:101420006C5F6770696F2E63000000000000014070
:10143000000401402DE9F84FDFF890B20D46044654
:101440004FF0000958450FD0A14884420CD0A14864
:10145000844209D0A048844206D0A048844203D0E8
:10146000CF219FA002F01AFF28880004000C03D1AE
:10147000D0219BA002F012FF6868F8B101281DD0AE
:1014800011281BD0022819D0122817D0A34988424E
:1014900014D0A349884211D0A24988420ED0A24953
:1014A00088420BD0A149884208D0A149884205D082
:1014B000032803D0D1218AA002F0F0FE00274FF0CC
:1014C000010A00BF2E680AFA07F806EA0806464530
:1014D0006FD15C450FD07E4884420CD07D48844259
:1014E00009D07D48844206D07C48844203D0DF2165
:1014F0007BA002F0D3FE89496868421A884259D01D
:101500000EDC032876D006DC002853D0012819D041
:1015100002286AD131E0112821D0122865D13AE0A1
:10152000B2F5881F46D006DCB2F5803F42D0B2F556
:10153000801F5AD13EE0B2F5001F3BD0B2F5041F28
:1015400053D137E0E868022807D0012805D00328E6
:1015500003D0E72162A002F0A1FEE8683FE0E8685E
:10156000022807D0012805D0032803D0EE215CA073
:1015700002F094FEE868001D31E0E868022807D018
:10158000012805D0032803D0F52155A002F086FEDE
:10159000E868083023E0E868022807D0012805D071
:1015A000032803D0FC214EA002F078FEE8680C303E
:1015B00015E085E0A86888B1012812D0022808D07B
:1015C00040F2091146A002F069FEA86830B1012876
:1015D00007D04FF00809C4F8148006E004208146C3
:1015E00003E04FF00809C4F81080FF2E05D822460A
:1015F00005E0FFE74FF00000F1E704F104024FEAD5
:10160000870001D9A0F1200013684FF00F0101FA03
:1016100000FC23EA0C0309FA00FC43EA0C03136004
:101620006868C0004CD54348826942F0010282617B
:10163000806927F0030200F0010000903E48024458
:101640009068BB071B0F994088435C4501D100217E
:101650000FE01F498C4201D101210AE01D498C4253
:1016600001D1022105E01C498C4201D1032100E097
:1016700004219940014391606868C0032F480168C4
:1016800001D5314300E0B1430160686880032C4814
:10169000016801D5314300E0B14301606868C002D0
:1016A0002848016801D5314300E0B1430160686812
:1016B00080022548016801D5314300E0B143016053
:1016C0007F1C102FFFF4FEAEBDE8F88F000801402C
:1016D000000C0140001001400014014000180140BE
:1016E0002E2E2F447269766572732F53544D333208
:1016F000463178785F48414C5F4472697665722F55
:101700005372632F73746D3332663178785F68611A
:101710006C5F6770696F2E6300000000000011109D
:1017200000002110000031100000121000002210F3
:10173000000032100010024000000140000401408F
:1017400004040140080401400C04014070B50C0081
:10175000054604D14FF4E27103A002F09FFDA86892
:10176000204000D0012070BD2E2E2F447269766576
:1017700072732F53544D3332463178785F48414C61
:101780005F4472697665722F5372632F73746D3381
:1017900032663178785F68616C5F6770696F2E635D
:1017A0000000000070B515460C00064604D14FF449
:1017B000F27108A002F072FD45B1012D04D040F293
:1017C000E51104A002F06AFD346170BD20043061AF
:1017D00070BD00002E2E2F447269766572732F53F0
:1017E000544D3332463178785F48414C5F447269DA
:1017F0007665722F5372632F73746D33326631784E
:10180000785F68616C5F6770696F2E63000000002D
:10181000014800687047000000000020024801688D
:10182000491C01607047000000000020074810B507
:10183000016841F010010160032000F003F900206D
:1018400000F006F800F03EF8002010BD0020024035
:1018500000B5014687B00022192000F0A3F8192036
:1018600000F070F81348816941F40061816180697A
:1018700005A900F400600690684600F069FA00F0DF
:10188000CFFA0D490D4AB0FBF1F10D48491E026037
:10189000416040F2E7320021C0E90321816001F09C
:1018A000EBF810B1012007B000BD054801F04EF97A
:1018B000F9E700000010024040420F00002C0140F8
:1018C000F40100201D4808B5816941F001018161E2
:1018D000806900F001000090032000F0B3F80022BE
:1018E00011466FF00B0000F05DF8002211466FF01A
:1018F0000A0000F057F8002211466FF0090000F0CE
:1019000051F800221146501F00F04CF800221146F9
:10191000101F00F047F800220F21901E00F042F83F
:1019200000220F21501E00F03DF80548416821F0CB
:10193000E06141F00071416008BD0000001002400C
:101940000000014010B5040003D5E62106A002F016
:10195000A5FC04F01F01012088406109890001F104
:10196000E021C1F8000110BD2E2E2F44726976656A
:1019700072732F53544D3332463178785F48414C5F
:101980005F4472697665722F5372632F73746D337F
:1019900032663178785F68616C5F636F7274657806
:1019A0002E63000070B515460C460646102A03D378
:1019B000D22114A002F072FC102C03D3D32111A069
:1019C00002F06CFC1E480068C0F30223C3F107025A
:1019D0002046042A00D90422191D072901D2002318
:1019E00000E0DB1E012404FA02F1491E0140994087
:1019F0009C40641E2C4021433046BDE8704001F0FD
:101A0000BEBC00002E2E2F447269766572732F5370
:101A1000544D3332463178785F48414C5F447269A7
:101A20007665722F5372632F73746D33326631781B
:101A3000785F68616C5F636F727465782E63000015
:101A40000CED00E010B5044607280BD0062C09D099
:101A5000052C07D0042C05D0032C03D0BA2108A0F4
:101A600002F01CFC154904F0070208684FF6FF035A
:101A7000184040EA0220124A1043086010BD0000DE
:101A80002E2E2F447269766572732F53544D333264
:101A9000463178785F48414C5F4472697665722FB1
:101AA0005372632F73746D3332663178785F686177
:101AB0006C5F636F727465782E6300000CED00E05C
:101AC0000000FA052DE9F0470E46050004D14FF459
:101AD0002F718DA002F0E2FB2868C1070AD18107AF
:101AE00008D4410706D4000704D440F2BD2186A0E3
:101AF00002F0D4FB46B1012E06D0022E04D040F2F3
:101B0000BE2181A002F0CAFBDFF83482D8F80000C1
:101B100000F00700B0420CD2D8F8001021F0070105
:101B20003143C8F80010D8F8000000F00700B042B8
:101B30006FD12878834C80071CD5A868A0B1802875
:101B400012D0902810D0A0280ED0B0280CD0C028D9
:101B50000AD0D02808D0E02806D0F02804D040F2DF
:101B6000D72169A002F09AFB6068A96820F0F00014
:101B7000084360602878C00764D06868012768B1AE
:101B8000012817D0022834D040F2DE215EA002F0F6
:101B900085FB686801280DD002282AD05FF0020179
:101BA00091FAA1F0B0FA80F040F02000400904D092
:101BB000206803E04FF40031F2E7606A91FAA1F186
:101BC000B1FA81F101F01F018F4038424BD06068BB
:101BD000696820F0030008436060FFF719FE696838
:101BE000074641F2883001290CD00229814616D0DF
:101BF00024E04FF00071D3E7FFF70AFEC11B49450F
:101C000001D918E081466068C0F381000128F3D152
:101C100018E028E0FFF7FCFDC11B49450BD86068C0
:101C2000C0F381000228F5D10CE000BFFFF7F0FD02
:101C3000C11B494502D90320BDE8F087606810F058
:101C40000C0FF3D1D8F80010404601F00701B14263
:101C50000BD9016821F0070131430160006800F0F1
:101C60000700B04201D00120E6E728784FF48066F3
:101C700040074FF4A0674FF4C0684FF4E06914D5F3
:101C8000E86860B1B0420AD0B84208D0404506D0FA
:101C9000484504D040F232311BA002F0FFFA6068E0
:101CA000E96820F4E060084360602878000715D5F3
:101CB000286960B1B0420AD0B84208D0404506D089
:101CC000484504D040F239310FA002F0E7FA6068CD
:101CD000296920F4605040EAC100606000F0B8F863
:101CE0006168F02292FAA2F201F0F001B2FA82F2F7
:101CF000D140154A515CC840144908600020FFF7E4
:101D0000A7FD002098E700002E2E2F44726976650B
:101D100072732F53544D3332463178785F48414CBB
:101D20005F4472697665722F5372632F73746D33DB
:101D300032663178785F68616C5F7263632E63002E
:101D40000020024000100240445A0008A400002075
:101D500070B50D46040004D140F2AD4111A002F06F
:101D60009DFA25B940F2AE410EA002F097FA0F207D
:101D700020601A48416801F003016160416801F088
:101D8000F001A160416801F4E061E16040684FF456
:101D9000E06101EAD00020611148006800F007000E
:101DA000286070BD2E2E2F447269766572732F5392
:101DB000544D3332463178785F48414C5F44726904
:101DC0007665722F5372632F73746D333266317878
:101DD000785F68616C5F7263632E6300001002407D
:101DE000002002400148006870470000A400002065
:101DF00008480949006849684FF4E06292FAA2F283
:101E000001F4E061B2FA82F2D140044A515CC84068
:101E100070470000A400002000100240545A00083F
:101E200008480949006849684FF4605292FAA2F2E2
:101E300001F46051B2FA82F2D140044A515CC840C8
:101E400070470000A400002000100240545A00080F
:101E500010B519A385B00FCB8DE80F001AA01B4B4E
:101E6000006804905A681A4802F00C0104291DD039
:101E700008291BD14FF4701494FAA4F402F47011E1
:101E8000B4FA84F4E140D2031DF8011010D55A6869
:101E90004FF4003393FAA3F302F40032B3FA83F35E
:101EA000DA4004AB9A5CB0FBF2F0484305B010BDD9
:101EB00008484843FAE7000002030405060708093A
:101EC0000A0B0C0D0E0F1010010200000010024052
:101ED00000127A0000093D002DE9F84F040004D1FA
:101EE0004FF48771EFA002F0D9F90227DFF8EC83F5
:101EF000FB4D20684FF4003A4FF000094FF4803B4F
:101F0000012660B1C1070DD1810777D4010776D4CE
:101F1000400775D440F20F11E2A002F0BFF920781B
:101F2000C00730D0606848B1584507D0B0F5A02F41
:101F300004D040F21511DBA002F0B0F96868C0F3DC
:101F40008100012807D06868C0F3810002281BD1F6
:101F50006868C00318D59AFAAAF1B1FA81F141F084
:101F60002001490901D0296800E0696A9AFAAAF0BB
:101F7000B0FA80F000F01F0006FA00F0014260D0D5
:101F8000606800287ED05CE06068584503D128680E
:101F900040F480300AE010B1B0F5A02F0DD02868D1
:101FA00020F480302860286820F480202860606851
:101FB00038B3FFF72DFC00900AE0286840F4802039
:101FC0002860E4E7FFF724FC0099401A642873D8DE
:101FD0009AFAAAF0B0FA80F040F02000400901D04F
:101FE000286800E0686A9AFAAAF1B1FA81F101F072
:101FF0001F0106FA01F10842E4D022E024E0BBE030
:1020000034E1FFE7FFF704FC009005E0FFF700FC78
:102010000099401A6428DAD89AFAAAF0B0FA80F047
:1020200040F02000400901D0286800E0686A9AFA70
:10203000AAF1B1FA81F101F01F0106FA01F108429B
:10204000E4D1207880076DD5206930B1012804D013
:1020500040F2491193A002F021F960691F2804D9C8
:102060004FF4A5718FA002F019F9686810F00C0FF9
:1020700007D06868C0F3810002281ED16868C003D9
:102080001BD400E08FE097FAA7F0B0FA80F040F0A0
:102090002000400901D0286800E0686A97FAA7F19B
:1020A000B1FA81F101F01F0106FA01F108422DD0C9
:1020B0002069012877D129E06FE2206998B396FA68
:1020C000A6F0B0FA80F048F82060FFF7A1FB00907E
:1020D00007E000BFFFF79CFB01460098081A0228A2
:1020E00099D897FAA7F0B0FA80F040F020004009A4
:1020F00001D0286800E0686A97FAA7F1B1FA81F187
:1021000001F01F0106FA01F10842E3D02868F82225
:1021100092FAA2F26169B2FA82F220F0F8009140DC
:102120000843286025E0FFE796FAA6F1B1FA81F1AD
:1021300048F82190FFF76CFB009005E0FFF768FB83
:102140000099401A0228CBD897FAA7F0B0FA80F08D
:1021500040F02000400901D0286800E0686A97FA42
:10216000A7F1B1FA81F101F01F0106FA01F108426D
:10217000E4D12078000776D5A06988B3012806D07D
:102180004FF4C57147A002F089F8A06940B396FAF0
:10219000A6F0B0FA80F008EB8000C0F88064FFF78A
:1021A00037FB009006E0B3E1FFF732FB0099401ADD
:1021B000022895D897FAA7F0B0FA80F040F06000B6
:1021C000B6EB501F01D128680CE097FAA7F0B0FADF
:1021D00080F040F06000B7EB501F02D1286A01E0A8
:1021E0000EE0686A97FAA7F1B1FA81F101F01F01D8
:1021F00006FA01F21042D7D00120FFF759F832E079
:1022000096FAA6F1B1FA81F108EB8101C1F8809448
:10221000FFF7FEFA009005E0FFF7FAFA0099401A7E
:10222000022890D897FAA7F0B0FA80F040F060004A
:10223000B6EB501F01D128680BE097FAA7F0B0FA6F
:1022400080F040F06000B7EB501F01D1286A00E039
:10225000686A97FAA7F1B1FA81F101F01F0106FA55
:1022600001F21042D8D12078400778D5E06840B11B
:10227000012806D0052804D040F2B71109A002F0C9
:102280000DF8E86940F08050E861E86900F080509E
:1022900000901448016841F480710160FFF7B8FABA
:1022A000009027E02E2E2F447269766572732F53AB
:1022B000544D3332463178785F48414C5F447269FF
:1022C0007665722F5372632F73746D333266317873
:1022D000785F68616C5F7263632E63000000424246
:1022E0000010024000700040FFF792FA0099401A77
:1022F000642896D8B7480068C005F5D5E06801287D
:102300000AD008B1052811D0286A20F001002862FF
:10231000286A20F0040002E0286A40F001002862E8
:10232000E068A0B3FFF774FA00900DE0286A40F06F
:1023300004002862F0E700BFFFF76AFA0099411A2B
:1023400041F288308142D4D897FAA7F0B0FA80F0F1
:1023500040F04000B6EB501F02D128680CE044E08A
:1023600097FAA7F0B0FA80F040F04000B7EB501FAA
:1023700001D1286A00E0686A97FAA7F1B1FA81F101
:1023800001F01F0206FA02F10842D5D02DE0FFE766
:10239000FFF73EFA009007E0FFF73AFA0099411A7A
:1023A00041F288308142A4D897FAA7F0B0FA80F0C1
:1023B00040F04000B6EB501F01D128680BE097FABF
:1023C000A7F0B0FA80F040F04000B7EB501F01D109
:1023D000286A00E0686A97FAA7F1B1FA81F101F082
:1023E0001F0206FA02F10842D6D1E06900286ED039
:1023F00001280AD0022808D040F24721AFF25C1031
:1024000001F04CFFE069002861D06868C0F38100EA
:1024100002287DD0E0694FF0807702280BD097FA30
:10242000A7F1B1FA81F148F82190FFF7F1F90746D9
:102430004FF00074B4E0206A38B1584505D04FF42D
:102440001471AFF2A01001F029FF606A78B3B0F503
:10245000802F2CD0B0F5002F29D0B0F5402F26D0FA
:10246000B0F5801F23D0B0F5A01F20D0B0F5C01F5D
:102470001DD0B0F5E01F1AD0B0F5001F17D0B0F591
:10248000101F14D0B0F5201F11D0B0F5301F0ED0A2
:10249000B0F5401F0BD0B0F5501F08D0B0F5601F4D
:1024A00005D040F25121AFF2042001F0F7FE4FF0C9
:1024B000807191FAA1F14846B1FA81F1C14648F81C
:1024C0002100FFF7A5F980464FF0007706E07CE099
:1024D000FFF79EF9A0EB080002285ED897FAA7F054
:1024E000B0FA80F040F02000400901D0286800E0F8
:1024F000686A97FAA7F1B1FA81F101F01F0106FAB3
:1025000001F10842E4D1206A584511D1A06800E0E9
:102510005DE038B1504505D040F26721AFF27C2034
:1025200001F0BCFE6868A16820F4003008436860D0
:10253000D4E908010843696821F47411084368600C
:102540004FF0807090FAA0F0B0FA80F049F8206067
:10255000FFF75EF9044604E0FFF75AF9001B022872
:102560001BD897FAA7F0B0FA80F040F0200040099D
:1025700001D0286800E0686A97FAA7F1B1FA81F102
:1025800001F01F0106FA01F10842E5D01DE000BF8D
:10259000FFF73EF9C01B022802D90320BDE8F88FDF
:1025A00094FAA4F0B0FA80F040F02000400901D085
:1025B000286800E0686A94FAA4F1B1FA81F101F0A8
:1025C0001F0106FA01F10842E2D10020E6E70120EE
:1025D000E4E700000070004010B5040011D00220B4
:1025E00084F851002068016821F040010160204614
:1025F00000F0ECF80020606584F8510084F8500089
:1026000010BD012010BD000010B504007ED05D4952
:102610002068884206D05C49884203D06B215BA0C9
:1026200001F03CFE606830B1B0F5827F03D06C21D0
:1026300056A001F033FEA06848B1B0F5806F06D017
:10264000B0F5004F03D06D2150A001F027FEE068E7
:10265000B0F5006F04D018B16E214CA001F01EFE41
:10266000206928B1022803D06F2148A001F016FE8E
:10267000606928B1012803D0702144A001F00EFE4A
:10268000A069B0F5007F07D030B1B0F5802F03D03E
:1026900071213EA001F002FEE06988B108280FD048
:1026A00010280DD018280BD0202809D0282807D0B2
:1026B000302805D0382803D0722134A001F0EEFD77
:1026C000206A28B1802803D0732130A001F0E6FDF4
:1026D000606A18B174212DA001F0E0FDA06A30B14C
:1026E000B0F5005F03D0752128A001F0D7FDE06AA6
:1026F0004FF6FE71401E884203D9762123A001F0D7
:10270000CDFD94F8510018B105E0FFE7012010BDA0
:10271000204600F06FF8022084F85100206801681C
:1027200021F040010160D4E901010843D4E903121A
:102730001143084361690843218B01F40071084388
:10274000E1690843216A0843A16A084321680860D7
:10275000A069042101EA1040616A084321684860C9
:102760002168E06A08612068C16921F40061C161E3
:102770001549002008706065012084F85100002090
:1027800010BD000000300140003800402E2E2F44C4
:102790007269766572732F53544D333246317878AF
:1027A0005F48414C5F4472697665722F5372632FA4
:1027B00073746D3332663178785F68616C5F737003
:1027C000695F65782E6300000400002000680649F8
:1027D000884208D10548816921F480518161E02156
:1027E0000348FEF771BD7047003001400010024001
:1027F0000008014010B50068114986B088421CD11C
:102800001048816941F48051816180690E4C00F467
:1028100080500490A020009002200190032003909B
:1028200069462046FEF706FE00214020CDE9000162
:10283000029169462046FEF7FDFD06B010BD00007E
:102840000030014000100240000801402DE9F84F1F
:10285000044690F851009A4616460F4601287DD14D
:10286000002F49D0002E47D0A0684FF4004930B166
:10287000484504D040F2A3114DA001F00FFD94F89B
:10288000500001286AD04FF0010884F850801220CF
:1028900084F85100002565652763A686E686E56411
:1028A000A564A563A587E587A06A4FF40056B042EA
:1028B00009D12068016821F4005101602068016895
:1028C00041F400510160A068484504D120680168C6
:1028D00041F48041016020680168490603D4016821
:1028E00041F040010160E0680028606807D0F0B165
:1028F000E08E01281BD024E00120BDE8F88F10B144
:10290000E08E012808D1206B411C216321680078EA
:10291000C860E08E401EE0860004000C1FD05346C5
:1029200000220221204600F03AFDA8B9EBE7206B17
:1029300021680088C860206B801C2063E08E401EE8
:10294000E0860004000C0AD05346002202212046F3
:1029500000F025FD0028EAD00320CEE726E0A06A9B
:10296000B04204D12068016841F4805101605346AF
:1029700000220221204600F012FD30B95346012208
:102980008021204600F00BFD20B1606D40F010006A
:102990006065E1E7A06818B92068C16880680090A8
:1029A00084F8518084F850500020A6E70220A4E764
:1029B0002E2E2F447269766572732F53544D333225
:1029C000463178785F48414C5F4472697665722F72
:1029D0005372632F73746D3332663178785F686138
:1029E0006C5F7370692E630010B54FF0E02404280B
:1029F00009D020B14FF4DF7105A001F04FFC206930
:102A000020F0040002E0206940F00400206110BDC5
:102A10002E2E2F447269766572732F53544D3332C4
:102A2000463178785F48414C5F4472697665722F11
:102A30005372632F73746D3332663178785F6861D7
:102A40006C5F636F727465782E63000010B5401E72
:102A5000B0F1807F01D3012010BD4FF0E024606110
:102A60000F21601700F08BFC0020A061072020617F
:102A7000002010BD7047704710B504002ED02149CA
:102A8000206888420CD0B0F1804F09D01E4988429E
:102A900006D01E49884203D0D7211DA001F0FEFBBD
:102AA000A06858B1102809D0202807D0402805D0A8
:102AB000602803D0D82116A001F0F0FB206948B1AE
:102AC000B0F5807F06D0B0F5007F03D0D92110A0EB
:102AD00001F0E4FB94F8390010B107E0012010BDCB
:102AE000002084F83800204600F02EF8022084F8F8
:102AF0003900211D206800F0DFFD012084F8390035
:102B0000002010BD002C01400004004000080040DF
:102B10002E2E2F447269766572732F53544D3332C3
:102B2000463178785F48414C5F4472697665722F10
:102B30005372632F73746D3332663178785F6861D6
:102B40006C5F74696D2E63007047000010B5044619
:102B500000680E4988420DD0B0F1804F0AD00C4970
:102B6000884207D00B49884204D04FF4AF710AA0C5
:102B700001F094FB2068C16841F00101C160206848
:102B8000016841F001010160002010BD002C0140EE
:102B900000040040000800402E2E2F447269766524
:102BA00072732F53544D3332463178785F48414C1D
:102BB0005F4472697665722F5372632F73746D333D
:102BC00032663178785F68616C5F74696D2E63007E
:102BD000704770B50446006801694FF00005C943AD
:102BE000890715D4C168C943890711D4E91E016159
:102BF00001202076206880698007204602D0FFF7F8
:102C0000E7FF04E000F098F8204600F096F82576FB
:102C100020680169C943490717D4C168C9434907F6
:102C200013D46FF0040101610220207620688069CE
:102C300010F4407F204602D0FFF7CAFF04E000F006
:102C40007BF8204600F079F8257620680169C943B1
:102C5000090716D4C168C943090712D46FF00801E7
:102C60000161042020762068C0698007204602D0D8
:102C7000FFF7AEFF04E000F05FF8204600F05DF8DB
:102C8000257620680169C943C90617D4C168C943BC
:102C9000C90613D46FF01001016108202076206866
:102CA000C06910F4407F204602D0FFF791FF04E096
:102CB00000F042F8204600F040F8257620680169CF
:102CC000C943C90708D1C168C943C90704D1891ECE
:102CD0000161204600F032F820680169C943090605
:102CE00009D4C168C943090605D46FF080010161A8
:102CF0002046FFF7BFFE20680169C943490609D491
:102D0000C168C943490605D46FF0400101612046FE
:102D100000F016F820680169C94389060BD4C16820
:102D2000C943890607D46FF0200101612046BDE840
:102D30007040FFF7A0BE70BD70477047FEF76EBDD4
:102D40007047704790F839007047000038B5044666
:102D500000680168C26811F0010F02F4807204D0AB
:102D60001AB1E16B41F00101E1630168C1F3400276
:102D7000416901F0010122B119B1E26B42F0040294
:102D8000E2630268C2F3800222B119B1E26B42F041
:102D90000202E2630268C2F3C00222B119B1E16B20
:102DA00041F00801E1630168C068C1F3401100F01F
:102DB000200019B110B1204600F0E0FC2068016845
:102DC000C068C1F3C01100F0800019B110B12046F5
:102DD00000F02AFE21680868CA68C0F3801002F07B
:102DE0004002012570B16AB1CA68204622F0400253
:102DF000CA6094F83910322911D080F8395000BFD8
:102E000000F0DEF9E06B002808D020680168406817
:102E1000009084F839502046FFF793FF38BD2221F7
:102E200080F83910ECE7000070B5040020D0A069EC
:102E300033490028334A344B20681BD088420AD0DB
:102E4000904208D0984206D040F207112FA001F01E
:102E500025FAA069C8B1A069B0F5807F15D0B0F59A
:102E6000007F12D0B0F5407F0FD04FF4847109E09D
:102E7000012070BD884208D0904206D0984204D00C
:102E80004FF4867121A001F009FAA06838B1B0F5BD
:102E9000805F04D04FF487711CA001F0FFF9E06956
:102EA00020B140F20F1119A001F0F8F994F839009F
:102EB000002520B984F83850204600F045F802205B
:102EC00084F839002068C16821F40051C1602046AF
:102ED00000F0A8FC2068016921F49041016120689C
:102EE000416921F02A0141612068C16841F4005123
:102EF000C160E563012084F83900002070BD000046
:102F00000038014000440040004800402E2E2F446D
:102F10007269766572732F53544D33324631787827
:102F20005F48414C5F4472697665722F5372632F1C
:102F300073746D3332663178785F68616C5F756188
:102F400072742E6300000000F0B50646374F036828
:102F50000024374802210322364D85B0BB4235D1CB
:102F6000836943F4804383618069039200F4804065
:102F700004900802CDE9000169462846FEF75AFA96
:102F80002815CDE90004694628460294FEF752FA56
:102F90002A4D2948C5E90004AC60EC6020202C6172
:102FA000C5E905400002E8612846FEF775F808B15A
:102FB000FDF73BFF75630022052125206E62FEF7B9
:102FC000F1FC2520FEF7BEFC05B0F0BD1C4FBB4256
:102FD000FAD1C36943F40033C361C069039200F4BA
:102FE000003004900420CDE9000169462846FEF730
:102FF00021FA0820CDE90004694628460294FEF72C
:1030000019FA0D480F4D283028601020C5E9010439
:10301000EC602C616C61AC612846EC61FEF73CF819
:1030200008B1FDF702FF35636E62CDE7003801405D
:1030300000100240000801405800024084010020B6
:1030400000440040BC01002070B5044690F83900EF
:10305000012801D0122832D169B362B394F8380044
:1030600001282CD0012084F83800A162A285002517
:10307000E56394F8390012281FD0222084F8390023
:10308000636B10489862636B0F48D862636B0F489C
:10309000186308461346666B216802463046091DD0
:1030A000FEF7ACF82068416941F04001416184F8C5
:1030B0003850002070BD012070BD3220DEE70220B4
:1030C00070BD00003D370008733700081D37000849
:1030D00000680549884205D10448002201788069CA
:1030E00001F01CBB704700000038014008000020C0
:1030F000704700002DE9F047044690F839009946E2
:103100000D46012801D0222858D12DB322B394F8BE
:103110003800012852D0012684F838600027E76380
:1031200094F8390022281AD05FF0120084F8390090
:10313000A284E2844FF48058E08C4B46401EE08429
:10314000A0684FF0000240454FF08001204613D1A7
:1031500000F09DFC08BB04E00120BDE8F0873220B0
:10316000E4E728882168C0F308004860206908B1B6
:103170006D1C08E0AD1C06E000F089FC68B9216810
:1031800015F8010B4860E08C0028D5D14B46002291
:103190004021204600F07BFC08B10320DDE794F8D5
:1031A0003900322806D084F8396000BF84F83870BE
:1031B0000020D2E7222084F83900F7E70220CCE78C
:1031C0007047FEE730B5244885B0816941F01001B1
:1031D0008161816901F010010491816941F0200150
:1031E0008161816901F020010491816941F004014C
:1031F0008161816901F004010491816941F0080154
:1032000081618069022500F0080004904FF40050AD
:1032100000900020CDE9010569461048FEF70AF943
:103220004FF4E04001240395CDE900040C4D6946BC
:103230002846FEF7FFF8E020CDE90004694628465D
:103240000394FEF7F7F8002247F2E0012846FEF764
:10325000A9FA05B030BD0000001002400010014086
:10326000000C01400E4810B50C4901604FF482710A
:10327000416000218160C1604FF400720161C0E9CA
:1032800005121822C0E90721416281620A21C16248
:10329000FFF7BAF9002800D0FEE710BD003001406A
:1032A000AC000020FEE7000070B5054600F022F8F3
:1032B000074CA070E178884204D0012806D0284647
:1032C00000F020F8A078E070002070BD0020F7E743
:1032D0004400002010B500F00DF805498870C87052
:1032E00000200870487000F00DF8002010BD0000AC
:1032F000440000204FF400510148FEF727BA0000B7
:10330000001001402DE9F0411A4C05004FF48041B6
:103310004FF400564FF4805706D0012D06D0022DF1
:1033200011D0032D08D119E000220DE0002216E093
:1033300039462046FEF736FA0F480178417005708D
:103340000020BDE8F08101222046FEF72BFA012281
:1033500031462046FEF726FA0022E9E70122204600
:10336000FEF720FA002231462046FEF71BFA012222
:10337000DEE70000000C0140440000207047090710
:10338000090E002806DA00F00F0000F1E02080F8B6
:10339000141D704700F1E02080F8001470472DE9FB
:1033A000F0471D4690460E460446FEF731FA0746A2
:1033B0005FEA08004FF000084FF4005A4FF001098F
:1033C00026D034E0681C23D025B1FEF721FAC01BBB
:1033D000A8421DD92068416821F0E00141602068C1
:1033E000016821F040010160A06A504509D12068C0
:1033F000016821F4005101602068016841F4005126
:10340000016084F8519084F850800320BDE8F08773
:103410002068806836EA0000D4D10DE0681C06D030
:10342000002DD7D0FEF7F4F9C01BA842D2D82068EF
:10343000806836EA0000F1D00020E7E710B50E48BA
:10344000FFF7CAF80C480D494FF4006201604FF4D1
:10345000827141600021C0E9021292100161C0E94D
:1034600005121822C0E90721416281620A21C16266
:10347000BDE81040FFF7C8B8AC00002000300140A4
:1034800001B506480122694603680548FFF7DEF9E1
:10349000002801D0FFF7D2FF08BD00003400002053
:1034A000AC0000200EB50A4D4FF0FF36324668469C
:1034B000696A01F077F8019C2046FDF757FA21462A
:1034C000686A01F069F8012001F026F8EEE70000D3
:1034D00008000020294C86B04FF0FF384546424690
:1034E00004A9A06902F031F89DF810007E28F5D1FA
:1034F0002A4604A9A06902F028F89DF810007E2849
:1035000004D12A4604A9A06902F01FF89DF8100012
:103510005528E3D12A466946A06902F016F89DF8BD
:1035200000000E28DAD1A8462946206A01F000F8EA
:1035300007463D46002607E029466D1C4246A06925
:1035400002F003F8761CF6B29DF800008642F3D331
:10355000424604A9A06901F0F8FF9DF80010384622
:1035600000F00AFF9DF810108842206A394602D107
:1035700001F05EF8B2E701F00FF8AFE708000020B5
:103580000EB50D4C4FF0FF373A466846216A01F000
:1035900009F83946019D606A00F0CAFF06460146F7
:1035A0002846FDF7B1FA3146606A01F041F8294634
:1035B000206A00F0F1FFE7E7080000200120FFF794
:1035C00073FEC82000F0A8FFF8E7000008B5084D1A
:1035D0004FF0FF3422466946E86901F0B6FF9DF8D6
:1035E00000100448FDF794F9012000F095FFF1E781
:1035F000080000204401002001F031B930B58FB03F
:103600000120009000040024CDE901040225CDE949
:1036100007504FF4E01009906846FEF75DFC00B1DA
:10362000FEE70F20CDE90A054FF48060CDE90C409C
:1036300002210AA80E94FEF745FA00B1FEE7FEF754
:10364000D1FB4FF47A71B0FBF1F0FFF7FFF90420E2
:10365000FFF7CAF900220F21501EFEF7A3F90FB0A1
:1036600030BD00000D48016841F001010160416872
:103670000B4A1140416001680A4A1140016001682B
:1036800021F480210160416821F4FE0141604FF482
:103690001F0181600449C0030860704700100240A8
:1036A0000000FFF8FFFFF6FE08ED00E00148FFF71D
:1036B00090BA0000F4010020F0B50268144B154CDC
:1036C000154D4FF08047984205D0B84203D0A04234
:1036D00001D0A84203D122F070064A6832439842D2
:1036E00005D0B84203D0A04201D0A84203D122F4B1
:1036F0004074CA68224302608A68C2620A688262B1
:10370000984201D10969016301214161F0BD0000C6
:10371000002C0140000400400008004010B5406A41
:103720000021C185C184012180F83910C16B41F0AD
:103730001001C163FFF705FB10BD000010B5014685
:10374000406A0968096889060ED40021C1850168AC
:103750004A6922F040024A6190F83910322906D0B5
:103760005FF0010180F83910FFF7B2FC10BD1221A3
:10377000F8E710B5406AFFF7BBFC10BD10B590F834
:103780003910222903D0322901D0022010BD8168CE
:10379000B1F5805F11D00169002901681FD0496827
:1037A00001F07F03816A4A1C82620B70C18D491E41
:1037B0000904090CC18518D030E00269816A002A29
:1037C0000268526805D0D2B20A80816A491C8162BF
:1037D000ECE7C2F308020A80816A891CF7E74A68AD
:1037E000816A4B1C83620A70E0E70168CA6822F0B4
:1037F0002002CA6090F83910322911D00168CA68D5
:1038000022F48072CA6001684A6922F001024A61AA
:103810005FF0010180F83910FFF75AFC002010BD5D
:103820001221F7E72DE9F041044640686D498842CE
:1038300004D340F252716CA000F030FDE06838B162
:10384000B0F5005F04D040F2537167A000F026FD90
:10385000206950B1B0F5806F07D0B0F5C06F04D0CB
:1038600040F2547160A000F019FD606930F00C0165
:1038700000D120B940F255715BA000F00FFD206827
:103880000169E26821F44051114301612169A06896
:103890000843616908432168CA6841F20C639A438E
:1038A0000243CA6020684169A26921F44071114352
:1038B00041615C4920686425322688423CD1FEF78C
:1038C000AFFA00EBC00101EB001061688900B0FBAA
:1038D000F1F7FEF7A5FA00EBC00101EB00106168FB
:1038E000B0468900B0FBF1F0B0FBF5F06FF01801C5
:1038F000484307EB800106EB0110B0FBF5F000F048
:10390000F006FEF78DFA00EBC00101EB00106168D4
:103910008900B0FBF1F0B0FBF5F006EB0016FEF706
:103920007FFA00EBC00101EB001061688900B0FB79
:10393000F1F7FEF775FA3BE0FEF75AFA00EBC0012B
:1039400001EB001061688900B0FBF1F7FEF750FA57
:1039500000EBC00101EB00106168B0468900B0FBCC
:10396000F1F0B0FBF5F06FF01801484307EB800170
:1039700006EB0110B0FBF5F000F0F006FEF738FAA8
:1039800000EBC00101EB001061688900B0FBF1F0B1
:10399000B0FBF5F006EB0016FEF72AFA00EBC001CB
:1039A00001EB001061688900B0FBF1F7FEF720FA27
:1039B00000EBC00101EB001061688900B0FBF1F081
:1039C000B0FBF5F06FF01801484307EB800108EBFE
:1039D0000110B0FBF5F0216800F00F003044886062
:1039E000BDE8F08121AA44002E2E2F44726976652D
:1039F00072732F53544D3332463178785F48414CBF
:103A00005F4472697665722F5372632F73746D33DE
:103A100032663178785F68616C5F756172742E63AD
:103A2000000000000038014090F83910122903D03E
:103A3000322901D0022070478168B1F5805F016AA8
:103A40000BD04A1C0262026809785160C18C491E81
:103A50000904090CC1840ED017E009880268C1F37B
:103A60000801516001690029016A02D0491C016204
:103A7000ECE7891CFBE70168CA6822F08002CA6093
:103A80000068C16841F04001C160002070472DE925
:103A9000F0471D4690460E460446FDF7B9FE074620
:103AA0005FEA08004FF000094FF0010808D030E04D
:103AB000681C05D095B1FDF7ABFEC01BA8420DD820
:103AC0002068006836EA0000F2D127E0681C20D0A8
:103AD00025B1FDF79DFEC01BA8421AD92068C16818
:103AE00021F08001C1602068C16821F02001C1601F
:103AF0002068C16821F48071C1602068416921F0AB
:103B00000101416184F8398084F838900320BDE8D0
:103B1000F0872068006836EA0000D7D00020F6E77A
:103B20000148FFF713B90000040100200FB42DE98C
:103B3000FF4106460CAC002509E05C290FD000F1DE
:103B4000010025290B9018D03046FCF7E1FE0B98B8
:103B500001780029F1D1BDE8FF015DF814FB401C9C
:103B60000B9001786E2903D0722915D10D2100E048
:103B70000A213046FCF7CCFE0DE0017864290ED016
:103B8000732909D180CC03E03046FCF7C1FE7F1CCD
:103B900039780029F8D10B98401C0B90D7E702CC5C
:103BA00000276846002920D007DA4FF02D028DF853
:103BB0000020C1F1000100F1010042F210734FF04A
:103BC0000A0C00BF91FBF3F252EA070E06D002F195
:103BD000300700F8017B02FB1311012793FBFCF374
:103BE000002BEFDC05706F4609E030208DF80000F7
:103BF0008DF80150F7E73046FCF78AFE7F1C3978D4
:103C00000029F8D1C7E7FEE7490050EAC12018BFF4
:103C100004204A0D18BF40F0010040F2FF72B2EBE1
:103C2000515F08BF40F00200012808BF052070471F
:103C30002DE9F74F144694B00021C4E902111599FB
:103C4000079121F00045C9498D4206DC1599C4E968
:103C5000000117B00020BDE8F08FC549DFF814A3BC
:103C6000A9423CDD0799C44E0029C44FC44A1599A6
:103C7000534619DDFCF7F9FB554506D0C14AC24B46
:103C8000FCF7F3FBC4E900010AE04FF0D352BE4B4E
:103C9000FCF7EBFB32463B46FCF7E7FBC4E90001CF
:103CA00017B00120BDE8F08FFCF73EFB554506D06C
:103CB000B44AB54BFCF738FBC4E900010AE04FF009
:103CC000D352B14BFCF730FB32463B46FCF72CFBA2
:103CD000C4E9000117B04FF0FF30BDE8F08FAB49E9
:103CE000A942159978DB21F0004183468846A84A0D
:103CF000A84BFCF7C0FB0022A74BFCF715FBFCF719
:103D0000E8FD0990FCF7C7FD06460F469C4A53465E
:103D1000FCF7B1FB43465A46FCF7AAFB80468A46AD
:103D2000984A994B30463946FCF7A5FB2A0D0125E8
:103D30000B9242465346FCF79BFB032DC4E900015E
:103D400039D00B98C1F30A51401A05EB45111139CE
:103D5000814230DA9148C346784400EB0510CDF833
:103D60000CA00C90D0E9002330463946FCF783FBC9
:103D700002460B460491069058460399FCF775FBE2
:103D800080468A4602460B4658460399FCF76DFB6F
:103D9000049B069AFCF769FB83460C98039139460D
:103DA000D0E902233046FCF766FB5A46039BFCF73A
:103DB0005CFB6D1CBDE707980028A2BF099817B0EF
:103DC000BDE8F08F616881F000416160099817B02B
:103DD0004042BDE8F08FFFE784461598C1F3130118
:103DE000C0F30A50A0F2F5304FEA601800F01F0649
:103DF000C6F12000139000200690079041F4801E29
:103E000005206D4676B1664A08EB00017A4452F807
:103E1000213002EB8101B3404A68139922FA01F183
:103E2000194305E05F4908EB0002794451F822107C
:103E3000A1FB0E27A1FB0C131A449A4234BF0123A5
:103E4000002303EB070A05EB8003D3E901B70F4416
:103E50008F4234BF0121002193448B4411B193451B
:103E600002D903E0934501D2012100E00021C3E91A
:103E700001B7514445F82010011EA0F10100C1DC3A
:103E80000298059F00F10050800F12900298DDE922
:103E900003568000FCF7FFFC834628460D91FCF793
:103EA0000BFD6FF01D02FCF7DFFCCDE90E01304683
:103EB000FCF702FD6FF03D02FCF7D6FC80468A4617
:103EC0003846FCF7F9FC6FF05D02FCF7CDFC0746C5
:103ED000424653461191FCF727FADDE90E23FCF721
:103EE00023FA5A460D9BFCF71FFA00250E465A4648
:103EF00028460D9BFCF7B9FADDE90E23FCF7B5FA6D
:103F000042465346FCF7B1FA3A46119BFCF7B0FA29
:103F1000DFF898A0244A5346FCF7ADFA07468846D6
:103F2000234A244B31462846FCF7A5FA3A46434635
:103F3000FCF7FAF9074688464FF0A8425346314647
:103F40002846FCF798FA3A464346FCF7EDF9159AED
:103F500012F0004F04D0129A81F0004152421292A6
:103F6000C4E90001129817B0BDE8F08FFB21E93FCA
:103F70007CD90240FB21F93F7370032E8A19A33BC1
:103F8000000040543163621A61B4D03DFB213941D5
:103F900083C8C96D305FE43F0000E03F341D00007E
:103FA000B01C0000921C0000182D4454FB21F93D68
:103FB0003326A611460B113C2DE9FF4D21F0004898
:103FC00007460C46B8F1795F08DAFCF782FC002856
:103FD00001BF0020324904B0BDE8F08D3A462346C7
:103FE00010461946FCF747FA054602462D480E468C
:103FF0000B460621784400F05DF82A463346FCF76C
:104000003AFADDE9022382468B4638462146FCF720
:1040100032FA04460F4652465B4628463146FCF7C4
:104020002AFA22463B46FCF720FA07468A464FF01A
:10403000FF3228463146FCF717FC1B4A90450ADA46
:104040003A465346FCF711FA04B00022BDE8F04DA1
:10405000134BFCF70DBA154A4245A8BFA8F5001549
:104060004FF00004B8BF124D22462B46FCF7FDF975
:104070000646884622462B4600200949FCF7F5F9FA
:1040800004460D463A46534630464146FCF7EDF9A4
:1040900004B022462B46BDE8F04DFCF7E9B900001C
:1040A0000000F03F681A00003333D33F0000E93FBF
:1040B0000000D23F2DE9F0414F1E00EBC70104463E
:1040C000D1E9000115461E4637F006020DD02A46FA
:1040D0003346FCF7D0F97F1E04EBC703D3E9002376
:1040E000FCF722F937F00602F1D1022F25D0042F78
:1040F00013D0062F18BFBDE8F0812A463346FCF7DF
:10410000BAF9D4E90A23FCF70FF92A463346FCF73B
:10411000B2F9D4E90823FCF707F92A463346FCF73D
:10412000AAF9D4E90623FCF7FFF82A463346FCF740
:10413000A2F9D4E90423FCF7F7F82A463346FCF742
:104140009AF9D4E90223FCF7EFF82A463346FCF744
:1041500092F9D4E90023BDE8F041FCF7E5B800008E
:104160002DE9FF4D054621F0004084B00C46B0F12A
:10417000795F0BDA2846FFF747FD042808BF00F0F7
:104180006FF8284608B02146BDE8F08D2A460B4658
:104190001046FCF770F906460F462A462346FCF700
:1041A0006AF9804626488A4632463B4605217844CD
:1041B000FFF780FF83461098029160B3214A224B9B
:1041C00040465146FCF757F9CDE900015A464046B2
:1041D0005146029BFCF74FF982468846DDE906010D
:1041E0004FF0FF32FCF740FB52464346FCF73DF9E7
:1041F00032463B46FCF73FF9DDE90623FCF735F98B
:10420000DDE90023FCF731F908B02A462346BDE872
:10421000F04DFCF72DB90B465A4630463946FCF7AF
:104220002AF9084A084BFCF77FF842465346FCF748
:1042300022F908B02A462346BDE8F04DFCF774B8D1
:10424000A6190000495555555555C5BF0122FCF723
:104250000BBB0022134610461146FCF77EB9000046
:10426000024A00201107FCF7FFBA000001FDFFFF22
:1042700002E008C8121F08C1002AFAD1704770472F
:10428000002001E001C1121F002AFBD1704700008D
:104290000149086070470000A80000200B46024654
:1042A00001A10D48FFF742BC57726F6E6720706125
:1042B00072616D65746572732076616C75653A2004
:1042C00066696C65202573206F6E206C696E6520B1
:1042D00025640D0A000000004401002000B5244BB5
:1042E00021F0004287B09A42DCBF0022134629DD4C
:1042F000204B9A4208D140B94FF00100FFF7C8FFA8
:10430000FFF7A7FF07B000BD03DBFFF79FFF07B074
:1043100000BD02AAFFF78CFC10F0030104BF0DF1F1
:10432000080C9CE80F000DD0012001290ED00229B5
:1043300014D00DF1080C00909CE80F00FFF710FF5F
:1043400007B000BDFFF738FE07B000BD0DF1080C47
:1043500000909CE80F00FFF703FF05E00DF1080C4B
:104360009CE80F00FFF728FE07B081F0004100BD78
:10437000FB21E93F0000F07F034610B50020024614
:1043800006E000BF13F8014B521C2044C0B2D2B269
:104390008A42F7D310BDEFF30580002800D001203A
:1043A000704700009EB0FDF741FAFFF727F9FEF7CE
:1043B00009FF5048416941F0010141614069002213
:1043C00000F001001D9005210F20FDF7EBFA0F20F2
:1043D000FDF7B8FA002205211120FDF7E3FA1120BC
:1043E000FDF7B0FA454844494FF4E1350024016037
:1043F000C0E901540C26C460C0E904468461C4616C
:10440000FEF712FD00B1FEE73C483D494030016037
:10441000C0E90154C460C0E904468461C461FEF788
:1044200003FD00B1FEE7FEF71DFFFCF789FAFEF77A
:1044300051FFFCF76DFC012232493048FEF704FEC3
:10444000142231496846FBF7CFFE0021684600F090
:1044500010FA2C4C2C4914226060143105A8FBF78B
:10446000C3FE002105A800F004FA2749A060142229
:1044700028310AA8FBF7B8FE00210AA800F0F9F9D4
:104480002149E06014223C310FA8FBF7ADFE00216A
:104490000FA800F0EEF91C4920611422503114A835
:1044A000FBF7A2FE002114A800F0E3F9164D6061AD
:1044B0001C3DD5E90001CDE91901002119A800F042
:1044C000E1F8A061D5E90201CDE91B0100211BA89B
:1044D00000F0D8F8E061002105F1100000F02EF89E
:1044E0002062002105F1100000F028F8606200F061
:1044F0001AF8FEE7001002400038014004010020D5
:104500000044004008000020E05900080146002057
:10451000842900D0C81C704710B500B9012000F0F4
:10452000AFFC002010BD10B500F054FD002010BD00
:10453000002802D0806800F01BB970473EB50446E1
:104540000020009001900290206800906068019027
:104550000C2000F0E1FAA1680028086019D004607E
:1045600000220421206800F0F1FDA168096848607C
:10457000A168096870B1684600F02AF90100A068D6
:1045800000688160A068006803D100BF00F018FCDB
:1045900000203EBD0846F9E710B1806800F047B939
:1045A000802070472DE9FF410D00064602951ED080
:1045B0004FF000084446CDF80C80501C1CD002B1CE
:1045C0001446FFF7E8FE202700286868694618D0DF
:1045D00003AA091D00F07EFF012810D0CDF800804D
:1045E0000398C0B111494FF08050086013E080205B
:1045F00000902A46019910E04FF0FF34E1E7009760
:10460000EEE700232246091D00F0C8FD012808D06E
:104610004CB1402000909DE8070086E80700BDE807
:10462000FF810097F7E70020F4E7000004ED00E0C9
:1046300013B582B004000FD000200090FFF7ABFE4E
:10464000002860684FF0000310D06A4603A900F00C
:10465000FBFE012810D102E0802004B010BD0098BC
:1046600060B107494FF08050086007E0002203A9BD
:1046700000F060FE012801D0FF20EEE70020ECE70B
:1046800004ED00E003C8002200F060BD2DE9FF4109
:104690000D004FF00006CDE9016507461AD0002451
:1046A0000396501C1BD002B11446FFF774FE6946F6
:1046B0004FF01008C8B103AA2846091D00F00AFFF0
:1046C00001280FD000960398D0B113494FF08050C5
:1046D000086015E0802031462A46009012E04FF035
:1046E000FF34E2E7CDF80080EDE7002322462846BC
:1046F000091D00F053FD012808D054B1402000905E
:104700009DE8070087E80700BDE8FF81CDF800803D
:10471000F6E70020F3E7000004ED00E037B50546BA
:1047200082B000200090140000D10124FFF733FE76
:104730004FF0000368B16A4603A9284600F084FEE2
:1047400001280DD1009870B108494FF080500860E1
:1047500009E0224603A9284600F0ECFD012802D01A
:10476000FF2005B030BD0020FBE7000004ED00E0B5
:1047700070B5002604463546FFF70DFE18B1FBF76D
:1047800003FD064601E000F0EDFA0021A26808E012
:1047900020690844824200D8002063681B5C53B142
:1047A000491C8A42F4D800BFFFF7F5FD60B13046DE
:1047B000FBF7F1FC0AE0626801211154E26821680C
:1047C000206100FB0215EFE700F0E8FA284670BD13
:1047D0002DE9F04105464068C01C20F00307142075
:1047E00000F09AF904001FD0002628682661C4E969
:1047F0000207286800F090F9606088B12868784363
:1048000000F08AF9206040B1002002E061680E5497
:10481000401C29688142F9D806E0606800F0D0FAAF
:10482000204600F0CDFA00242046BDE8F08178B1A2
:1048300071B102688A420BD8891AC268B1FBF2F3DF
:1048400002FB131323B9B1FBF2F182688A4201D84B
:10485000802070474068002242541046704710B5CF
:1048600000F074FF012803D0BDE8104000F05CBCEC
:1048700010BD30B5044685B00D46B0F90800FFF70D
:1048800045FE002104AA0090CDE901210391208A70
:104890002B4682B2D4E9001000F092FE012802D02B
:1048A000002005B030BD0498FBE7000070B50B4C4C
:1048B000054620684560E0682168854205D2606B46
:1048C000BDE87040091D00F029BA206B091D00F0F9
:1048D00025FAA06A854200D2A56270BD480000207A
:1048E00070B5124E124C1AE000F09EFB3068D0B149
:1048F00001F012F800F036FAF068C568281D00F0E3
:10490000D5F9A068401EA0606068401E606000F09D
:1049100045FA286B00F054FA284600F051FA606816
:104920000028E1D170BD00F0F7FFF8E7F8020020A1
:104930004800002030B4026C0B46002A0BD0C1683E
:104940001144C1604468A14201D30168C16030BC18
:104950001846FBF749BC30BC704770B51646026C70
:104960000446002582B1C6B1E068FBF73DFCE16872
:10497000206C091AE1602268914202D26168081A2B
:10498000E060022E16D01AE02068C0B9606800F01E
:104990004BFF05460020606011E0A068FBF724FC97
:1049A000216CA0680844A0606168884207D3206831
:1049B000A06004E0A06B10B1A06B401EA063A06BD0
:1049C000401CA063284670BD10484FF47051420748
:1049D00006D0C01D0D4920F00700411AC1F57051E5
:1049E0000B4A00230144C2E900030839103A21F0C0
:1049F000070111604B600B600B1AC0E90013936054
:104A00004FF000405360D06070470000200300204A
:104A100090000020054C00BFFFF762FF20680128CE
:104A200001D900F021FA00F053F9F5E73002002037
:104A300030B5114900E011460A688242FBD34B6849
:104A40005C18844203D140681844486008464368B3
:104A50001C18944209D1084C103C2468A24209D089
:104A600052681A4442600A6812680260814200D0AB
:104A7000086030BD0460F9E7900000200648016B33
:104A8000096829B1016BC968C968496881627047C2
:104A90004FF0FF31FAE7000048000020044840686A
:104AA000401C02D0FBF770FBFEE7FBF76DFBFEE757
:104AB0009800002070B5044600F054F904F1240574
:104AC0000AE0606A58B1284600F0F0FE08B100F034
:104AD000FFF9A06C401EA064A06C0028F1DC4FF030
:104AE000FF36A66400F05AF900F03CF904F1100515
:104AF0000AE0206958B1284600F0D8FE08B100F05D
:104B0000E7F9606C401E6064606C0028F1DC66644C
:104B1000BDE8704000F042B92DE9F041054600279C
:104B200000F082FA2A4E306808B9FFF74DFFF068AE
:104B3000054242D1F5B30835680709D005F00700F2
:104B4000C0F108000544680702D0FBF71DFBFEE733
:104B500085B37068854230D81D48103001460C6816
:104B600001E020460C466168A94202D22168002972
:104B7000F7D131688C4220D00768216801606068F5
:104B80000837411B102909D96019420702D0FBF7E9
:104B9000FBFAFEE741606560FFF74AFF61687068F5
:104BA000401A7060B268904200D2B060F068014371
:104BB000002000E001E0C4E9000100F0ADFE78074C
:104BC00002D0FBF7E1FAFEE73846BDE8F0810000CD
:104BD000800000200449086818B10868026E521C61
:104BE00002660868704700004800002010B5031FE7
:104BF0004FF080741C601B1F1960191F024B0B6063
:104C0000143940380A6010BD9D4A000800B5254B94
:104C100021F0004287B09A4203DC00221346009242
:104C20002BE0214B9A4208D140B94FF00100FFF729
:104C30002FFBFFF70EFB07B000BD03DBFFF706FB02
:104C400007B000BD02AAFEF7F3FF10F003014FF01A
:104C500001000DD0012914D002291AD00DF1080C41
:104C60009CE80F00FFF7A8F907B081F0004100BDF4
:104C70000DF1080C00909CE80F00FFF771FA07B0E7
:104C800000BD0DF1080C9CE80F00FFF795F907B087
:104C900000BD0DF1080C00909CE80F00FFF760FAD2
:104CA000E2E70000FB21E93F0000F07FD0E901329C
:104CB00001699A60D0E901235A604A68824201D1B1
:104CC00082684A60002202610868401E08607047DE
:104CD0007047000001A10948FEF728BF4170706CC1
:104CE00069636174696F6E20537461636B204F76E2
:104CF0006572666C6F77210A0D0A0000440100207E
:104D000000F108014FF0FF32C0E90112C1600161FA
:104D100000210160704700210161704730B50B68C8
:104D20005A1C02D000F1080202E0026904E02246A7
:104D3000546825689D42FAD953684B6099608A602F
:104D4000516008610168491C016030BD42684A60D9
:104D500093688B6093685960916008610168491C91
:104D60000160704710B5FBF70FFA0A484168491C0B
:104D70004160BFF34F8FBFF36F8F4068012807D1A9
:104D80000548006810F0FF0F02D0FBF7FDF9FEE7C1
:104D900010BD00009800002004ED00E0074910B5A8
:104DA000486830B1401E486006D1BDE81040FBF7AE
:104DB000F2B9FBF7E9F9FEE710BD0000980000200A
:104DC00070B500281DD00F4DA0F108046068E96897
:104DD000084202D1FBF7D8F9FEE7226812B1FBF7CF
:104DE000D3F9FEE78843606000F01EF960686968E7
:104DF000084468602046FFF71BFEBDE8704000F0E5
:104E00008BBD70BD8000002006484FF47A710068A9
:104E1000B0FBF1F14FF0E020491E41610721016133
:104E200070470000A400002010B5FBF7B7F90C494B
:104E3000102809D300F1E02090F8F0030A7890429E
:104E400002D2FBF7A1F9FEE706480068896800F482
:104E5000E060884202D9FBF797F9FEE710BD000039
:104E6000980000200CED00E004494FF080500860ED
:104E7000BFF34F8FBFF36F8F7047000004ED00E06A
:104E800070B502001DD0114CE06A10B1FBF77CF93F
:104E9000FEE700F0C9F8E06885182068001DFFF7FC
:104EA00005FF38B9206890F82C100120884021694E
:104EB000814321612846FFF7F9FC00F02DFD002811
:104EC00003D1BDE87040FFF7CFBF70BD48000020A0
:104ED00001490120C86170474800002070B50D46A7
:104EE00050B1124C21681831FFF718FF2068001DDF
:104EF000FFF7DCFE18B10AE0FBF746F9FEE7206891
:104F000090F82C1001208840216981432161681CA0
:104F100005D0E0682844BDE87040FFF7C7BC2168B1
:104F2000BDE870400248091DFFF710BF480000208F
:104F30000C03002070B5040039D01D4DE06A2968CB
:104F4000C96A884233D2A069002804DB2868C06A95
:104F5000C0F10700A061E16A164E01EB81016069B2
:104F600006EB810188421FD1201DFFF79FFE012122
:104F700050B9E06A00EB800256F8222022B92A6973
:104F800001FA00F082432A612868C06AE0622A6957
:104F900081401143296100EB800006EB8000211D58
:104FA000BDE87040FFF7D2BE2868C06AE06270BDFD
:104FB000480000203002002010B528B104490A6AD8
:104FC0000260C968416010BDFBF7DEF8FEE7000033
:104FD000480000201FB50024009401940294234649
:104FE00080220DA10E48039400F0EAFA012804D0B3
:104FF00000280FD1FBF7C8F8FEE7FBF7C5F8094812
:105000004FF0FF31816201214161C460BDE81F4062
:1050100000F050B81FBD000049444C45000000009E
:10502000154A0008480000200248C16A491CC162B4
:10503000704700004800002010B51C4CE06A10B119
:105040000120E06110BD0020E06120684FF0A53133
:10505000006B02688A4208D142688A4205D18268A0
:105060008A4202D1C068884204D021682068343165
:10507000FFF730FE20690E49B0FA80F0C0F11F0042
:1050800000EB800051F820206AB101EB800000F1B4
:105090000802416849684160914201D14968416014
:1050A000C868206010BDFBF76FF8FEE748000020DD
:1050B000300200201CB5194908780190FF200870C3
:1050C00008788DF800009DF80000154A00F05000A7
:1050D00010700720906005E09DF800305B008DF8AF
:1050E0000030401E9DF800301B06F5D4000200F48D
:1050F000E0609060019808700A48016841F470010E
:105100000160016841F070410160FFF77DFE002001
:105110005060FBF707F800201CBD000000E400E031
:105120009800002020ED00E010B5FBF72DF800F00E
:105130001BFB18B104494FF080500860BDE81040D7
:105140000020FBF728B8000004ED00E02DE9F04155
:1051500017460E46050017D0CEB105FB06F0401CE1
:105160005430FFF7D9FC040015D096B104F1540077
:105170002060C4E90F560121204600F0A6F884F80B
:1051800050702046BDE8F081FAF7FEFFFEE70020F0
:10519000E6E72460EDE7FAF7F7FFFEE72DE9FF41C8
:1051A000002582B098460E46040001D01EB107E0EB
:1051B000FAF7EAFFFEE7206C10B1FAF7E5FFFEE729
:1051C00000F0C4FA002720B9049810B1FAF7DCFF08
:1051D000FEE7FFF7C7FDA06B50B331462046E568F8
:1051E000FFF7A8FBB8F1000F10D0E560606A38B196
:1051F00004F1240000F05AFB10B100BFFFF734FEA9
:10520000FFF7CCFD012006B0BDE8F081A06B401E89
:10521000A063206810B9FFF7DDFC606020690028FA
:10522000EED004F1100000F041FB0128E6D0E7E7E2
:10523000049808B11DB106E0FFF7B0FD1DE0684617
:10524000FFF7BAFE0125FFF7A9FDFFF7EDFEFFF717
:1052500089FD606C401C00D16764A06C401C00D1CB
:10526000A764FFF79BFD04A9684600F07DF930B103
:105270002046FFF71FFC00F04FFB0020C3E7FFF7BD
:1052800071FDA06B38B1FFF789FD2046FFF712FCD6
:1052900000F042FB9DE7FFF781FD206830B9FFF782
:1052A00061FD6068FFF746FEFFF778FD04F124001A
:1052B0000499FFF713FE2046FFF7FCFB00F02CFBE0
:1052C000002886D1FFF7D0FD83E770B50D460400B6
:1052D00023D0FFF747FDD4E90F20216802FB00111E
:1052E00061600021A1632168A1600A46D4E90F0131
:1052F000401E00FB01214FF0FF30E1606064A064BC
:1053000004F1100065B1FFF7FBFC04F12400FFF786
:10531000F7FCFFF743FD012070BDFAF735FFFEE70C
:1053200021690029F5D000F0C1FA0128F1D1FFF779
:105330009BFDEEE72DE9FF41002682B01D46884621
:10534000040003D0B8F1000F03D007E0FAF71CFF08
:10535000FEE7206C10B1FAF717FFFEE7022D05D12A
:10536000E06B012802D0FAF70FFFFEE700F0EEF93C
:10537000002720B9049810B1FAF706FFFEE7FFF7FF
:10538000F1FCA06BE16B884205D3022D03D0049899
:10539000C0B1D6B11DE02A4641462046FFF7DDFAEE
:1053A000616A31B104F1240000F080FA012801D0D3
:1053B00002E008B1FFF758FDFFF7F0FC012006B04E
:1053C000BDE8F081FFF7EAFC1DE06846FFF7F4FD59
:1053D0000126FFF7E3FCFFF727FEFFF7C3FC606C35
:1053E000401C00D16764A06C401C00D1A764FFF78B
:1053F000D5FC04A9684600F0B7F830B12046FFF7A5
:1054000059FB00F089FA0020D9E7FFF7ABFCA06B4D
:10541000E16B884210D1FFF7C1FC04F11000049940
:10542000FFF75CFD2046FFF745FB00F075FA00280A
:10543000A5D1FFF719FDA2E7FFF7B0FC2046FFF763
:1054400039FB00F069FA9AE72DE9F0411D4616464E
:105450000F46040001D01FB107E0FAF795FEFEE702
:10546000206C10B1FAF790FEFEE7022D05D1E06B3B
:10547000012802D0FAF788FEFEE7FFF7D5FCFAF71D
:1054800083FE8046A06BE16B884208D3022D06D0D4
:1054900000244046FAF77FFE2046BDE8F0812A4608
:1054A00039462046FFF759FAA06C401C04D0A06C86
:1054B000401CA0640124ECE7606A0028FAD004F1E3
:1054C000240000F0F3F90028F4D0002EF2D00120DF
:1054D0003060EFE72DE9F04115460E46040001D09B
:1054E0001EB107E0FAF750FEFEE7206C10B1FAF7A4
:1054F0004BFEFEE7FFF798FCFAF746FE0746A06B67
:10550000E0B131462046FFF715FAA06B401EA063BC
:10551000606C401C04D0606C401C606401240EE090
:1055200020690028FAD004F1100000F0BFF900282B
:10553000F4D0002DF2D001202860EFE70024384697
:10554000FAF729FE2046BDE8F0813EB50C4601463B
:105550006846FFF79BF8DDE90010102901D0002014
:105560003EBD207001203EBD70B50D46040019D02F
:10557000DDB1FFF7F7FB114AD1682868431C0FD053
:105580002368126A934202D062688A4210D9626824
:10559000891A81420CD2401A28602046FFF70CFD80
:1055A000002406E0FAF7F0FDFEE7FAF7EDFDFEE76E
:1055B0000124FFF7F3FB204670BD000048000020E7
:1055C0002DE9FF5F5FEA000BDDE90F900E9E1546A7
:1055D0008A4604D0072E05D3FAF7D6FDFEE7FAF780
:1055E000D3FDFEE7A900884610B90846FFF794FAF4
:1055F000070019D06C20FFF78FFA0400384611D04D
:10560000A52241462063FAF701FE6FF00301206BEB
:1056100001EB8501084420F00707780707D0FAF767
:10562000B3FDFEE7FFF7CCFB4FF0FF3486E05146B9
:105630003546002022180B5C82F834300A5C12B127
:10564000401C2028F6D3002084F85300072D00D3F7
:105650000625E562C4E917508046201DFFF75BFB75
:1056600004F11800FFF757FB2461C5F107016462DC
:10567000A161C4F8648084F8688059463846039A6A
:10568000FFF7B4FA2060B9F1000F01D0C9F800406B
:10569000FFF768FB2B4DA868401CA8602868DFF85E
:1056A000A88010B1686940B32CE02C60A86801287C
:1056B00028D1002707EB870108EB8100FFF720FBCB
:1056C0007F1C072FF6D320488C30FFF719FB1E48AC
:1056D000A030FFF715FB1C48B430FFF711FB1A4848
:1056E000C830FFF70DFB1848DC30FFF709FB164800
:1056F0008C3028631430686304E02868C06AB042C4
:1057000000D82C60686A401C68626065E16A01200C
:105710002A6988401043286101EB810108EB810070
:10572000211DFFF713FB0124FFF738FB686928B13F
:105730002868C06AB04201D2FFF796FB04B0204649
:10574000BDE8F09F48000020300200200548416974
:1057500019B1C06A18B100207047012070470220BB
:1057600070470000480000202DE9F0412C4C002635
:10577000E06A40B1A069401CA061E06900B1012667
:105780003046BDE8F081E068401CE060E76877B92A
:10579000206B006810B1FAF7F7FCFEE7206B616B35
:1057A00021636063206A401C2062FFF767F9A06AEA
:1057B000DFF87080874209D3206B006880B1206BCE
:1057C000C068C568686887420DD2A0622068C06A58
:1057D00000EB800158F821000128CED90126CCE742
:1057E0004FF0FF30F1E7281DFFF760FAA86A18B103
:1057F00005F11800FFF75AFAE96A0120226988408A
:105800001043206101EB810108EB8100291DFFF7A6
:105810009DFAE86A2168C96A8842CDD30126CBE7A0
:10582000480000203002002070B504004FF0000155
:1058300036D01C4D2868844202D0FAF7A5FCFEE75A
:10584000206E38B1401E2066E36DE26A9A4227D08E
:1058500018B125E0FAF798FCFEE7201DFFF726FABD
:10586000114A012150B9E06A00EB800352F823305D
:1058700023B92B6901FA00F083432B61E06DE062EC
:10588000C0F10700A061E06A2B69814019432961DA
:1058900000EB800002EB8000211DFFF757FA012189
:1058A000084670BD48000020300200202DE9F0417C
:1058B000C068C468ACB104F118000746FFF7F6F9F8
:1058C000134DE86A012678B139461248FFF73EFACF
:1058D000E06A2968C96A884217D90120EE61BDE8EB
:1058E000F081FAF751FCFEE7201DFFF7DFF9E16ACE
:1058F0002A6906FA01F01043286101EB810005498D
:10590000B43901EB8000211DE0E70020E7E700004B
:1059100048000020E40200202DE9F047274C002633
:10592000E06A38B1FFF71EFAE06A401EE062E06A02
:1059300018B13DE0FAF728FCFEE7A168204D0120F0
:1059400079B3A5F1B40980462868E8B1E868C7686A
:1059500007F11800FFF7AAF9381DFFF7A7F9F96A50
:10596000226908FA01F01043206101EB810109EB83
:105970008100391DFFF7EAF9F86A2168C96A88428F
:10598000E2D3C4F81C80DFE7A06958B14546A0699E
:1059900040B1FFF7E9FE00B1E561A069401EA061DA
:1059A000F5E705E0E069012802D10126FFF75CFA7E
:1059B000FFF7F4F93046BDE8F0870000480000200A
:1059C000E40200208000000001000000000200004E
:1059D00001000000040000000E0000003000002064
:1059E000905B0008BD350008FFFF000000000000CC
:1059F00080000000805B0008D53400080000000033
:105A000000000000A00000009C5B00088135000839
:105A1000010000000000000000010000B85B000869
:105A2000A53400080200000000000000A0000000F3
:105A3000AC5B0008CD350008FFFF0000000000004F
:105A400080000000000000000000000001020304CC
:105A5000060708090000000001020304000000001E
:105A60004C5555555555A53F7751C1166CC156BF7C
:105A70009015CB19A001FA3EAD529C804F7E92BE8C
:105A8000C4B1B4BD9EEE213ED43888BEE9FAA8BDAB
:105A900000004054FB21F93F3163621A61B4D03DEC
:105AA0000000601A61B4D03D7370032E8A19A33BC5
:105AB0000000002E8A19A33BC14920259A837B3917
:105AC00000000000000000006E83F9A22915444E7A
:105AD000D15727FCC0DD34F5999562DB4190433CFA
