:020000040800F2
:1000000018430020A5010008692C0008AF2A000849
:10001000952B00080B0500088F3600080000000033
:1000200000000000000000000000000001010008C6
:10003000ED060008000000004501000885300008BA
:10004000BF010008BF010008BF010008BF01000890
:10005000BF010008BF010008BF010008BF01000880
:10006000BF010008BF010008BF010008BF01000870
:10007000BF010008BF010008BF01000865060008B5
:10008000BF01000871060008BF010008BF01000899
:10009000BF010008BF010008BF010008BF01000840
:1000A000BF01000835310008BF010008BF0100088A
:1000B000BF010008BF010008BF010008BF01000820
:1000C000BF010008BF010008BF010008BF01000810
:1000D000BF010008A9350008BF010008BF010008E2
:1000E000BF010008BF010008BF010008DFF80CD005
:1000F00000F0B8F9004800470D3900081843002007
:10010000204B19680868B0E8F00F80F30988BFF346
:100110006F8F4FF0000080F311884EF00D0E704786
:100120000000000006480068006880F3088862B696
:1001300061B6BFF34F8FBFF36F8F00DF00BF00BF0B
:1001400008ED00E0EFF30980BFF36F8F0D4B1A68E5
:1001500020E9F00F106008B54FF0500080F31188CF
:1001600004F0CCF94FF0000080F31188BDE808409E
:1001700019680868B0E8F00F80F30988BFF36F8F43
:10018000704700BF3C000020EFF311804FF050019A
:1001900081F31188704780F311887047EFF3058071
:1001A000704700000648804706480047FEE7FEE724
:1001B000FEE7FEE7FEE7FEE7FEE7FEE7FEE7FEE717
:1001C000ED300008ED000008202A04DB203A21FA77
:1001D00002F00021704721FA02F3D040C2F1200260
:1001E000914008431946704740EA01039B0703D03A
:1001F00009E008C9121F08C0042AFAD203E011F866
:10020000013B00F8013B521EF9D27047D2B201E027
:1002100000F8012B491EFBD270470022F6E710B50B
:1002200013460A4604461946FFF7F0FF204610BD64
:10023000420005D0C0F3C7525242914201DC002077
:10024000704700EBC15070472DE9F04D81EA03047F
:1002500004F0004B21F0004514464FF0000A23F053
:10026000004150EA050220D054EA01021DD0C5F336
:100270000A570246C5F31303C1F31300C1F30A562C
:1002800040F4801543F48013A7EB0608101BD646F4
:1002900008F2FD3873EB050002D308F1010801E014
:1002A00092185B41B8F1000F03DA00200146BDE867
:1002B000F08D00204FF48011064684460EE0171B97
:1002C00073EB050705D3121B63EB050306434CEAEA
:1002D000010C49084FEA300092185B4150EA0107CF
:1002E000EDD152EA030012D082EA040083EA05014C
:1002F000084305D0101BAB4106D20122002306E0C3
:1003000000224FF0004302E06FF0010253101AEB9D
:1003100006004CEB085110EB0A0041EB0B01BDE865
:10032000F04D00F042B8C1F30A5210B5C1F3130109
:1003300040F2FF3341F480119A4201DA002010BDEF
:1003400040F233439A42A2F2334203DC5242FFF7B7
:100350003BFF10BD904010BD00F0004230F0004067
:100360000AD0C10D01F56071C0F3160042EA0151D7
:10037000C20840071143704700200146704730B55E
:100380000B46014600202022012409E021FA02F553
:100390009D4205D303FA02F5491B04FA02F52844ED
:1003A000151EA2F10102F1DC30BD10B5141E73F16F
:1003B000000408DA401C41F1000192185B411A4325
:1003C00001D120F0010010BD2DE9F04D92469B4671
:1003D00011B1B1FA81F202E0B0FA80F22032904617
:1003E00000F052F804460F4640EA0A0041EA0B01C9
:1003F00053465A46084313D0114653EA010019D018
:10040000C8F140025046FFF7DFFE05460E46504653
:100410005946424600F038F8084305D0012004E070
:1004200020463946BDE8F08D0020054346EAE076D7
:100430002C4337430A986305E40AA0EB0800002226
:10044000FD0A44EA47540A3002D500200146E9E794
:10045000010510196941DDE9084500196941BDE848
:10046000F04DA2E7064C074D06E0E06840F00103BE
:1004700094E8070098471034AC42F6D3FFF73AFEF1
:10048000D84F0008F84F0008202A04DB203A00FA71
:1004900002F1002070479140C2F1200320FA03F3DB
:1004A00019439040704770B514460D00064614D0AD
:1004B0008CB1304602F0BCF81228FAD0304602F077
:1004C000B7F83228F5D0642322462946304602F098
:1004D00087FA032800D0002070BD012070BD13B53D
:1004E0000446204602F0A4F81228FAD0204602F072
:1004F0009FF83228F5D06423012201A9204602F09A
:100500006FFA032800D000201CBDFEE710B5084C90
:100510000020214600F01EF82146012000F01AF8C4
:100520004FF07C51022000F015F8002010BD0000B3
:100530000000E03F10B504460168002000F00AF812
:100540000120616800F006F80220A16800F002F8BE
:10055000002010BD2DE9F0410C460200364E374F09
:10056000374D38494FF07C5007D0012A24D0022A59
:1005700060D184423FDA044640E0844201DA044616
:1005800002E08C4200DD0C4609212046FFF750FEB8
:10059000FFF7E2FE32463B46FFF756FEFFF7C3FE8B
:1005A00084B200228021284600F072FD204600F02F
:1005B0004BF80122802138E0844201DA044602E04F
:1005C0008C4200DD0C4609212046FFF731FEFFF783
:1005D000C3FE32463B46FFF737FEFFF7A4FE84B268
:1005E00000224021284600F053FD204600F02CF860
:1005F0000122402119E08C4200DD0C4609212046F1
:10060000FFF716FEFFF7A8FE32463B46FFF71CFE3B
:10061000FFF789FE84B200222021284600F038FD31
:10062000204600F011F8012220212846BDE8F041C3
:1006300000F02EBDBDE8F081CDCCCCCCCCCCFC3FC5
:10064000000C014066664640800510B5000D010AA9
:10065000C4B2084602F08AFB2046BDE8104002F012
:1006600085BB0000014800F057B800007801002069
:10067000014800F051B80000B001002010B5046836
:1006800063604368102B036803D099600068C26000
:1006900010BD9A600068C16010BD000030B585B023
:1006A0007E218DF8001055218DF801100E24014691
:1006B0006D468DF802402246E81CFFF795FD214665
:1006C000E81C03F001F98DF8110012226946024876
:1006D000FFF7E9FE05B030BDF800002002480860D1
:1006E000486000208860704700002040704700008C
:1006F00040F275242246024902A002F0C9FFF9E740
:100700006E4F00083C3C2D44454255472D3E3E204F
:1007100025734025643A0A002DE9F05FDFF8608216
:100720000446D8F80020DFF858B2954D944E944F07
:100730000068DFF84C92DFF848A20BF1080B1C357B
:10074000303644374FF400614FF4004C4FF4002E24
:1007500009F158090AF16C0A584501D1082316E03D
:10076000A84201D1802312E0B04201D10B460EE035
:10077000B84201D163460AE0484501D1734606E01C
:10078000504502D14FF4000301E04FF000631A42DC
:1007900031D00268D24312072DD4026822F0080239
:1007A00002602068584501D1082114E0A84201D117
:1007B000802110E0B0420ED0B84201D161460AE07B
:1007C000484501D1714606E0504502D14FF4000181
:1007D00001E04FF00061C8F80410606B40F00100C8
:1007E0006063042084F82100002084F82000216B3D
:1007F00009B1204688476248D0F800C04FF48061B4
:1008000020680A010B044FF4802E584502D14FF0A6
:10081000040816E0A84202D14FF0400811E0B042AF
:1008200001D188460DE0B84201D1904609E0484523
:1008300001D1F04605E0504502D14FF4800800E0B8
:1008400098461CEA080F33D0D0F800C06FEA0C0CB1
:100850005FEA4C7C2CD4D0F800C05FEA8C6C05D4E5
:10086000D0F800C02CF0040CC0F800C02068584537
:1008700001D1042113E0A84201D140210FE0B04290
:100880000DD0B84201D1114609E0484501D1714669
:1008900005E0504502D14FF4800100E01946384888
:1008A0004160112084F82100E16A09B1204688479F
:1008B000334AD2F800C05B46206851154FF4005B04
:1008C0004FF4003E984202D14FF0020817E0A842D0
:1008D00002D14FF0200812E0B04201D188460EE06C
:1008E000B84201D1D8460AE0484501D1F04606E0B9
:1008F000504502D14FF4001801E04FF000781CEA97
:10090000080F3BD0D0F800C06FEA0C0C5FEA8C7C7B
:1009100034D4D0F800C05FEA8C6C05D4D0F800C0A5
:100920002CF0020CC0F800C02068984201D10221CE
:1009300014E0A84201D1202110E0B0420ED0B8420C
:1009400001D159460AE0484501D1714606E05045BB
:1009500002D14FF4001101E04FF000715160606B63
:100960006063012084F82100002084F82000A16A3F
:10097000002903D02046BDE8F05F0847BDE8F09F9E
:100980000000024070B504006ED0484920688842DB
:100990001BD046491431884217D044492831884237
:1009A00013D042493C3188420FD0404950318842EF
:1009B0000BD03E496431884207D03C4978318842A7
:1009C00003D0B5213AA002F05FFF606840B1102863
:1009D00006D0B0F5804F03D0B62135A002F054FF09
:1009E000A068402804D018B1B72131A002F04CFF14
:1009F000E068802804D018B1B8212DA002F044FF8F
:100A0000206948B1B0F5807F06D0B0F5007F03D0F3
:100A1000B92127A002F038FF606948B1B0F5806FB6
:100A200006D0B0F5006F03D0BA2121A002F02CFF50
:100A3000A06928B1202803D0BB211DA002F024FF0B
:100A4000E06960B1B0F5805F09D0B0F5005F06D015
:100A5000B0F5405F03D0BC2115A002F015FF94F85B
:100A60002100002310B103E0012070BD84F8203084
:100A7000022084F821002268116843F6F070814357
:100A8000D4E901052843D4E9035635432843656971
:100A90002843A5692843E569284308431060636338
:100AA000012084F82100002070BD000008000240F1
:100AB0002E2E2F447269766572732F53544D333244
:100AC000463178785F48414C5F4472697665722F91
:100AD0005372632F73746D3332663178785F686157
:100AE0006C5F646D612E63002DE9F041044690F85F
:100AF00020001D4616460F46012831D0012084F8FB
:100B00002000022084F82100681E4FF6FF71884201
:100B100004D340F2611113A002F0B6FE2068016810
:100B200021F0010101602B46324639462046FFF78D
:100B3000A5FD2068016841F002010160206801689C
:100B400041F0040101602068016841F00801016082
:100B50002068016841F0010101600020BDE8F081DA
:100B60000220FBE72E2E2F447269766572732F5395
:100B7000544D3332463178785F48414C5F44726956
:100B80007665722F5372632F73746D3332663178CA
:100B9000785F68616C5F646D612E630031B500F051
:100BA000ADFA044600F0AAFA0099001B8842F9D376
:100BB00038BD00002DE9F05F434F0025DFF80C91B0
:100BC000DFF80CA1DFF80CB10E460446B8420DD098
:100BD0004C450BD0544509D05C4507D03E48844273
:100BE00004D04FF4BC713DA002F04EFE3004000C66
:100BF00064D140F2791139A002F046FE5EE0012096
:100C0000A840304059D0FF2801D8234601E004F124
:100C100004034FEA850201D9A2F12002D3F800C0F3
:100C20004FF00F0101FA02F82CEA080C4FF004080B
:100C300008FA02F84CEA080CC3F800C0E26822EA9D
:100C40000002E260344A25F003031A44D2F808C0D7
:100C50004FEA85734FEA137301FA03F101EA0C0CB2
:100C6000BC4202D14FF0000810E04C4502D14FF0D9
:100C700001080BE0544502D14FF0020806E05C4544
:100C800002D14FF0030801E04FF0040808FA03F81E
:100C9000E04512D193688B43936020490A688243F0
:100CA0000A600A1D116881431160121D1168814399
:100CB0001160111D0A6882430A606D1C36FA05F046
:100CC0009DD1BDE8F09F000000080140000C0140EC
:100CD0000010014000140140001801402E2E2F4446
:100CE0007269766572732F53544D3332463178787A
:100CF0005F48414C5F4472697665722F5372632F6F
:100D000073746D3332663178785F68616C5F6770D9
:100D1000696F2E63000000000000014000040140E4
:100D20002DE9F84FDFF890B20D4604464FF0000968
:100D300058450FD0A14884420CD0A148844209D024
:100D4000A048844206D0A048844203D0CF219FA06F
:100D500002F09AFD28880004000C03D1D0219BA04A
:100D600002F092FD6868F8B101281DD011281BD04F
:100D7000022819D0122817D0A349884214D0A349B9
:100D8000884211D0A24988420ED0A24988420BD095
:100D9000A149884208D0A149884205D0032803D040
:100DA000D1218AA002F070FD00274FF0010A00BF98
:100DB0002E680AFA07F806EA080646456FD15C4530
:100DC0000FD07E4884420CD07D48844209D07D48B3
:100DD000844206D07C48844203D0DF217BA002F00D
:100DE00053FD89496868421A884259D00EDC0328AD
:100DF00076D006DC002853D0012819D002286AD109
:100E000031E0112821D0122865D13AE0B2F5881FCF
:100E100046D006DCB2F5803F42D0B2F5801F5AD1F1
:100E20003EE0B2F5001F3BD0B2F5041F53D137E0CE
:100E3000E868022807D0012805D0032803D0E7215D
:100E400062A002F021FDE8683FE0E868022807D0D0
:100E5000012805D0032803D0EE215CA002F014FD88
:100E6000E868001D31E0E868022807D0012805D0B5
:100E7000032803D0F52155A002F006FDE8680830EC
:100E800023E0E868022807D0012805D0032803D012
:100E9000FC214EA002F0F8FCE8680C3015E085E07B
:100EA000A86888B1012812D0022808D040F20911A0
:100EB00046A002F0E9FCA86830B1012807D04FF045
:100EC0000809C4F8148006E00420814603E04FF0CE
:100ED0000809C4F81080FF2E05D8224605E0FFE778
:100EE0004FF00000F1E704F104024FEA870001D956
:100EF000A0F1200013684FF00F0101FA00FC23EA73
:100F00000C0309FA00FC43EA0C0313606868C00094
:100F10004CD54348826942F001028261806927F022
:100F2000030200F0010000903E4802449068BB07B5
:100F30001B0F994088435C4501D100210FE01F49F8
:100F40008C4201D101210AE01D498C4201D10221CC
:100F500005E01C498C4201D1032100E004219940A5
:100F6000014391606868C0032F48016801D531438F
:100F700000E0B1430160686880032C48016801D536
:100F8000314300E0B14301606868C002284801684D
:100F900001D5314300E0B143016068688002254813
:100FA000016801D5314300E0B14301607F1C102F7F
:100FB000FFF4FEAEBDE8F88F00080140000C0140D0
:100FC0000010014000140140001801402E2E2F4453
:100FD0007269766572732F53544D33324631787887
:100FE0005F48414C5F4472697665722F5372632F7C
:100FF00073746D3332663178785F68616C5F6770E7
:10100000696F2E6300000000000011100000211025
:1010100000003110000012100000221000003210F9
:10102000001002400000014000040140040401409F
:10103000080401400C04014070B50C00054604D1C1
:101040004FF4E27103A002F01FFCA868204000D01A
:10105000012070BD2E2E2F447269766572732F5356
:10106000544D3332463178785F48414C5F44726961
:101070007665722F5372632F73746D3332663178D5
:10108000785F68616C5F6770696F2E6300000000B5
:1010900070B515460C00064604D14FF4F27108A055
:1010A00002F0F2FB45B1012D04D040F2E51104A09D
:1010B00002F0EAFB346170BD2004306170BD0000B5
:1010C0002E2E2F447269766572732F53544D33322E
:1010D000463178785F48414C5F4472697665722F7B
:1010E0005372632F73746D3332663178785F686141
:1010F0006C5F6770696F2E63000000000148006834
:10110000704700000000002002480168491C01608F
:101110007047000000000020074810B5016841F04A
:1011200010010160032000F003F9002000F006F830
:1011300000F03EF8002010BD0020024000B501463E
:1011400087B00022192000F0A3F8192000F070F8F1
:101150001348816941F400618161806905A900F447
:1011600000600690684600F069FA00F0CFFA0D4979
:101170000D4AB0FBF1F10D48491E0260416040F29A
:10118000E7320021C0E90321816001F0EBF810B1E2
:10119000012007B000BD054801F04EF9F9E7000055
:1011A0000010024040420F00002C0140E8010020E6
:1011B0001D4808B5816941F001018161806900F035
:1011C00001000090032000F0B3F8002211466FF0F8
:1011D0000B0000F05DF8002211466FF00A0000F0ED
:1011E00057F8002211466FF0090000F051F8002274
:1011F0001146501F00F04CF800221146101F00F05D
:1012000047F800220F21901E00F042F800220F2123
:10121000501E00F03DF80548416821F0E06141F0C2
:101220000071416008BD0000001002400000014054
:1012300010B5040003D5E62106A002F025FB04F05A
:101240001F01012088406109890001F1E021C1F8F6
:10125000000110BD2E2E2F447269766572732F53D4
:10126000544D3332463178785F48414C5F4472695F
:101270007665722F5372632F73746D3332663178D3
:10128000785F68616C5F636F727465782E630000CD
:1012900070B515460C460646102A03D3D22114A079
:1012A00002F0F2FA102C03D3D32111A002F0ECFAD1
:1012B0001E480068C0F30223C3F107022046042A37
:1012C00000D90422191D072901D2002300E0DB1EEA
:1012D000012404FA02F1491E014099409C40641E19
:1012E0002C4021433046BDE8704001F0BEBC0000F8
:1012F0002E2E2F447269766572732F53544D3332FC
:10130000463178785F48414C5F4472697665722F48
:101310005372632F73746D3332663178785F68610E
:101320006C5F636F727465782E6300000CED00E0F3
:1013300010B5044607280BD0062C09D0052C07D081
:10134000042C05D0032C03D0BA2108A002F09CFA8B
:10135000154904F0070208684FF6FF03184040EAF9
:101360000220124A1043086010BD00002E2E2F44A8
:101370007269766572732F53544D333246317878E3
:101380005F48414C5F4472697665722F5372632FD8
:1013900073746D3332663178785F68616C5F636F48
:1013A000727465782E6300000CED00E00000FA0511
:1013B0002DE9F0470E46050004D14FF42F718DA0A2
:1013C00002F062FA2868C1070AD1810708D44107F0
:1013D00006D4000704D440F2BD2186A002F054FADE
:1013E00046B1012E06D0022E04D040F2BE2181A0CB
:1013F00002F04AFADFF83482D8F8000000F0070063
:10140000B0420CD2D8F8001021F007013143C8F8DF
:101410000010D8F8000000F00700B0426FD1287823
:10142000834C80071CD5A868A0B1802812D09028D2
:1014300010D0A0280ED0B0280CD0C0280AD0D028B8
:1014400008D0E02806D0F02804D040F2D72169A0C7
:1014500002F01AFA6068A96820F0F00008436060A2
:101460002878C00764D06868012768B1012817D0C0
:10147000022834D040F2DE215EA002F005FA68684E
:1014800001280DD002282AD05FF0020191FAA1F0C4
:10149000B0FA80F040F02000400904D0206803E05A
:1014A0004FF40031F2E7606A91FAA1F1B1FA81F1EB
:1014B00001F01F018F4038424BD06068696820F00E
:1014C000030008436060FFF719FE6968074641F2B0
:1014D000883001290CD00229814616D024E04FF033
:1014E0000071D3E7FFF70AFEC11B494501D918E097
:1014F00081466068C0F381000128F3D118E028E03C
:10150000FFF7FCFDC11B49450BD86068C0F38100A3
:101510000228F5D10CE000BFFFF7F0FDC11B4945E3
:1015200002D90320BDE8F087606810F00C0FF3D1FA
:10153000D8F80010404601F00701B1420BD901680C
:1015400021F0070131430160006800F00700B0425C
:1015500001D00120E6E728784FF4806640074FF479
:10156000A0674FF4C0684FF4E06914D5E86860B133
:10157000B0420AD0B84208D0404506D0484504D011
:1015800040F232311BA002F07FF96068E96820F474
:10159000E060084360602878000715D5286960B1CD
:1015A000B0420AD0B84208D0404506D0484504D0E1
:1015B00040F239310FA002F067F96068296920F420
:1015C000605040EAC100606000F0B8F86168F02245
:1015D00092FAA2F201F0F001B2FA82F2D140154A79
:1015E000515CC840144908600020FFF7A7FD0020A7
:1015F00098E700002E2E2F447269766572732F5380
:10160000544D3332463178785F48414C5F447269BB
:101610007665722F5372632F73746D33326631782F
:10162000785F68616C5F7263632E63000020024024
:10163000001002407C4F00089800002070B50D4655
:10164000040004D140F2AD4111A002F01DF925B90A
:1016500040F2AE410EA002F017F90F2020601A48A8
:10166000416801F003016160416801F0F001A1608F
:10167000416801F4E061E16040684FF4E06101EA33
:10168000D00020611148006800F00700286070BD9C
:101690002E2E2F447269766572732F53544D333258
:1016A000463178785F48414C5F4472697665722FA5
:1016B0005372632F73746D3332663178785F68616B
:1016C0006C5F7263632E63000010024000200240D2
:1016D0000148006870470000980000200848094948
:1016E000006849684FF4E06292FAA2F201F4E06106
:1016F000B2FA82F2D140044A515CC84070470000FF
:1017000098000020001002408C4F0008084809494A
:10171000006849684FF4605292FAA2F201F46051F5
:10172000B2FA82F2D140044A515CC84070470000CE
:1017300098000020001002408C4F000810B519A33B
:1017400085B00FCB8DE80F001AA01B4B00680490EA
:101750005A681A4802F00C0104291DD008291BD12F
:101760004FF4701494FAA4F402F47011B4FA84F4EF
:10177000E140D2031DF8011010D55A684FF4003330
:1017800093FAA3F302F40032B3FA83F3DA4004AB22
:101790009A5CB0FBF2F0484305B010BD08484843DE
:1017A000FAE7000002030405060708090A0B0C0DFE
:1017B0000E0F1010010200000010024000127A000B
:1017C00000093D002DE9F84F040004D14FF4877162
:1017D000EFA002F059F80227DFF8EC83FB4D2068F8
:1017E0004FF4003A4FF000094FF4803B012660B1FE
:1017F000C1070DD1810777D4010776D4400775D48E
:1018000040F20F11E2A002F03FF82078C00730D07C
:10181000606848B1584507D0B0F5A02F04D040F219
:101820001511DBA002F030F86868C0F381000128D0
:1018300007D06868C0F3810002281BD16868C00324
:1018400018D59AFAAAF1B1FA81F141F020014909BB
:1018500001D0296800E0696A9AFAAAF0B0FA80F02B
:1018600000F01F0006FA00F0014260D06068002816
:101870007ED05CE06068584503D1286840F4803031
:101880000AE010B1B0F5A02F0DD0286820F4803008
:101890002860286820F480202860606838B3FFF74B
:1018A0002DFC00900AE0286840F480202860E4E7DE
:1018B000FFF724FC0099401A642873D89AFAAAF01A
:1018C000B0FA80F040F02000400901D0286800E024
:1018D000686A9AFAAAF1B1FA81F101F01F0106FAD9
:1018E00001F10842E4D022E024E0BBE034E1FFE76C
:1018F000FFF704FC009005E0FFF700FC0099401A98
:101900006428DAD89AFAAAF0B0FA80F040F0200001
:10191000400901D0286800E0686A9AFAAAF1B1FA91
:1019200081F101F01F0106FA01F10842E4D12078AB
:1019300080076DD5206930B1012804D040F24911EB
:1019400093A001F0A1FF60691F2804D94FF4A5718D
:101950008FA001F099FF686810F00C0F07D068683D
:10196000C0F3810002281ED16868C0031BD400E0C8
:101970008FE097FAA7F0B0FA80F040F0200040091D
:1019800001D0286800E0686A97FAA7F1B1FA81F1FE
:1019900001F01F0106FA01F108422DD0206901284B
:1019A00077D129E06FE2206998B396FAA6F0B0FAF1
:1019B00080F048F82060FFF7A1FB009007E000BF2F
:1019C000FFF79CFB01460098081A022899D897FA5D
:1019D000A7F0B0FA80F040F02000400901D028685C
:1019E00000E0686A97FAA7F1B1FA81F101F01F01EE
:1019F00006FA01F10842E3D02868F82292FAA2F22E
:101A00006169B2FA82F220F0F80091400843286040
:101A100025E0FFE796FAA6F1B1FA81F148F82190A6
:101A2000FFF76CFB009005E0FFF768FB0099401A98
:101A30000228CBD897FAA7F0B0FA80F040F0200047
:101A4000400901D0286800E0686A97FAA7F1B1FA66
:101A500081F101F01F0106FA01F10842E4D120787A
:101A6000000776D5A06988B3012806D04FF4C57168
:101A700047A001F009FFA06940B396FAA6F0B0FABA
:101A800080F008EB8000C0F88064FFF737FB00901F
:101A900006E0B3E1FFF732FB0099401A022895D81F
:101AA00097FAA7F0B0FA80F040F06000B6EB501F54
:101AB00001D128680CE097FAA7F0B0FA80F040F066
:101AC0006000B7EB501F02D1286A01E00EE0686A9F
:101AD00097FAA7F1B1FA81F101F01F0106FA01F2BC
:101AE0001042D7D00120FFF759F832E096FAA6F15C
:101AF000B1FA81F108EB8101C1F88094FFF7FEFA99
:101B0000009005E0FFF7FAFA0099401A022890D8F1
:101B100097FAA7F0B0FA80F040F06000B6EB501FE3
:101B200001D128680BE097FAA7F0B0FA80F040F0F6
:101B30006000B7EB501F01D1286A00E0686A97FA8D
:101B4000A7F1B1FA81F101F01F0106FA01F210428A
:101B5000D8D12078400778D5E06840B1012806D078
:101B6000052804D040F2B71109A001F08DFEE86904
:101B700040F08050E861E86900F08050009014481F
:101B8000016841F480710160FFF7B8FA009027E026
:101B90002E2E2F447269766572732F53544D333253
:101BA000463178785F48414C5F4472697665722FA0
:101BB0005372632F73746D3332663178785F686166
:101BC0006C5F7263632E63000000424200100240AB
:101BD00000700040FFF792FA0099401A642896D8E6
:101BE000B7480068C005F5D5E06801280AD008B1FB
:101BF000052811D0286A20F001002862286A20F008
:101C0000040002E0286A40F001002862E068A0B306
:101C1000FFF774FA00900DE0286A40F00400286293
:101C2000F0E700BFFFF76AFA0099411A41F28830E5
:101C30008142D4D897FAA7F0B0FA80F040F0400083
:101C4000B6EB501F02D128680CE044E097FAA7F0E9
:101C5000B0FA80F040F04000B7EB501F01D1286A85
:101C600000E0686A97FAA7F1B1FA81F101F01F026A
:101C700006FA02F10842D5D02DE0FFE7FFF73EFA61
:101C8000009007E0FFF73AFA0099411A41F28830D4
:101C90008142A4D897FAA7F0B0FA80F040F0400053
:101CA000B6EB501F01D128680BE097FAA7F0B0FA05
:101CB00080F040F04000B7EB501F01D1286A00E0EF
:101CC000686A97FAA7F1B1FA81F101F01F0206FAEA
:101CD00002F10842D6D1E06900286ED001280AD06E
:101CE000022808D040F24721AFF25C1001F0CCFD91
:101CF000E069002861D06868C0F3810002287DD0C7
:101D0000E0694FF0807702280BD097FAA7F1B1FA7B
:101D100081F148F82190FFF7F1F907464FF0007480
:101D2000B4E0206A38B1584505D04FF41471AFF2D1
:101D3000A01001F0A9FD606A78B3B0F5802F2CD017
:101D4000B0F5002F29D0B0F5402F26D0B0F5801F78
:101D500023D0B0F5A01F20D0B0F5C01F1DD0B0F526
:101D6000E01F1AD0B0F5001F17D0B0F5101F14D027
:101D7000B0F5201F11D0B0F5301F0ED0B0F5401FC8
:101D80000BD0B0F5501F08D0B0F5601F05D040F261
:101D90005121AFF2042001F077FD4FF0807191FAEC
:101DA000A1F14846B1FA81F1C14648F82100FFF798
:101DB000A5F980464FF0007706E07CE0FFF79EF93A
:101DC000A0EB080002285ED897FAA7F0B0FA80F0DE
:101DD00040F02000400901D0286800E0686A97FAC6
:101DE000A7F1B1FA81F101F01F0106FA01F10842F1
:101DF000E4D1206A584511D1A06800E05DE038B117
:101E0000504505D040F26721AFF27C2001F03CFD47
:101E10006868A16820F4003008436860D4E90801CC
:101E20000843696821F47411084368604FF08070BA
:101E300090FAA0F0B0FA80F049F82060FFF75EF960
:101E4000044604E0FFF75AF9001B02281BD897FA52
:101E5000A7F0B0FA80F040F02000400901D02868D7
:101E600000E0686A97FAA7F1B1FA81F101F01F0169
:101E700006FA01F10842E5D01DE000BFFFF73EF988
:101E8000C01B022802D90320BDE8F88F94FAA4F001
:101E9000B0FA80F040F02000400901D0286800E04E
:101EA000686A94FAA4F1B1FA81F101F01F0106FA0F
:101EB00001F10842E2D10020E6E70120E4E700005A
:101EC0000070004010B5040011D0022084F85100C9
:101ED0002068016821F040010160204600F0ECF824
:101EE0000020606584F8510084F8500010BD012086
:101EF00010BD000010B504007ED05D492068884206
:101F000006D05C49884203D06B215BA001F0BCFC89
:101F1000606830B1B0F5827F03D06C2156A001F02B
:101F2000B3FCA06848B1B0F5806F06D0B0F5004FA3
:101F300003D06D2150A001F0A7FCE068B0F5006F60
:101F400004D018B16E214CA001F09EFC206928B18C
:101F5000022803D06F2148A001F096FC606928B1E7
:101F6000012803D0702144A001F08EFCA069B0F5D7
:101F7000007F07D030B1B0F5802F03D071213EA093
:101F800001F082FCE06988B108280FD010280DD03C
:101F900018280BD0202809D0282807D0302805D0B1
:101FA000382803D0722134A001F06EFC206A28B1D9
:101FB000802803D0732130A001F066FC606A18B15C
:101FC00074212DA001F060FCA06A30B1B0F5005F73
:101FD00003D0752128A001F057FCE06A4FF6FE718E
:101FE000401E884203D9762123A001F04DFC94F8CD
:101FF000510018B105E0FFE7012010BD204600F0B8
:102000006FF8022084F851002068016821F0400137
:102010000160D4E901010843D4E9031211430843E4
:1020200061690843218B01F400710843E1690843A9
:10203000216A0843A16A084321680860A069042155
:1020400001EA1040616A0843216848602168E06A3B
:1020500008612068C16921F40061C161154900204F
:1020600008706065012084F85100002010BD000058
:1020700000300140003800402E2E2F4472697665F2
:1020800072732F53544D3332463178785F48414C48
:102090005F4472697665722F5372632F73746D3368
:1020A00032663178785F68616C5F7370695F6578FC
:1020B0002E6300000400002000680649884208D111
:1020C0000548816921F480518161E0210348FEF7D0
:1020D00071BD70470030014000100240000801400F
:1020E00010B50068114986B088421CD1104881693A
:1020F00041F48051816180690E4C00F4805004905D
:10210000A020009002200190032003906946204601
:10211000FEF706FE00214020CDE90001029169464C
:102120002046FEF7FDFD06B010BD00000030014066
:1021300000100240000801402DE9F84F044690F8D5
:1021400051009A4616460F4601287DD1002F49D0EE
:10215000002E47D0A0684FF4004930B1484504D064
:1021600040F2A3114DA001F08FFB94F8500001281C
:102170006AD04FF0010884F85080122084F8510092
:10218000002565652763A686E686E564A564A563E4
:10219000A587E587A06A4FF40056B04209D12068B0
:1021A000016821F4005101602068016841F4005188
:1021B0000160A068484504D12068016841F480416D
:1021C000016020680168490603D4016841F04001BC
:1021D0000160E0680028606807D0F0B1E08E012857
:1021E0001BD024E00120BDE8F88F10B1E08E01285B
:1021F00008D1206B411C216321680078C860E08E03
:10220000401EE0860004000C1FD05346002202212D
:10221000204600F03AFDA8B9EBE7206B2168008862
:10222000C860206B801C2063E08E401EE0860004A6
:10223000000C0AD0534600220221204600F025FD62
:102240000028EAD00320CEE726E0A06AB04204D1FD
:102250002068016841F48051016053460022022148
:10226000204600F012FD30B953460122802120465D
:1022700000F00BFD20B1606D40F010006065E1E7FB
:10228000A06818B92068C1688068009084F85180FF
:1022900084F850500020A6E70220A4E72E2E2F44F9
:1022A0007269766572732F53544D333246317878A4
:1022B0005F48414C5F4472697665722F5372632F99
:1022C00073746D3332663178785F68616C5F7370F8
:1022D000692E630010B54FF0E024042809D020B126
:1022E0004FF4DF7105A001F0CFFA206920F004005F
:1022F00002E0206940F00400206110BD2E2E2F4422
:102300007269766572732F53544D33324631787843
:102310005F48414C5F4472697665722F5372632F38
:1023200073746D3332663178785F68616C5F636FA8
:10233000727465782E63000010B5401EB0F1807F86
:1023400001D3012010BD4FF0E02460610F21601720
:1023500000F08BFC0020A06107202061002010BD50
:102360007047704710B504002ED02149206888427C
:102370000CD0B0F1804F09D01E49884206D01E49CA
:10238000884203D0D7211DA001F07EFAA06858B181
:10239000102809D0202807D0402805D0602803D075
:1023A000D82116A001F070FA206948B1B0F5807FFD
:1023B00006D0B0F5007F03D0D92110A001F064FA57
:1023C00094F8390010B107E0012010BD002084F816
:1023D0003800204600F02EF8022084F83900211D34
:1023E000206800F0ADFE012084F83900002010BD07
:1023F000002C014000040040000800402E2E2F4415
:102400007269766572732F53544D33324631787842
:102410005F48414C5F4472697665722F5372632F37
:1024200073746D3332663178785F68616C5F74699C
:102430006D2E63007047000010B5044600680E4919
:1024400088420DD0B0F1804F0AD00C49884207D0A5
:102450000B49884204D04FF4AF710AA001F014FA7E
:102460002068C16841F00101C1602068016841F045
:1024700001010160002010BD002C0140000400405B
:10248000000800402E2E2F447269766572732F5318
:10249000544D3332463178785F48414C5F4472691D
:1024A0007665722F5372632F73746D333266317891
:1024B000785F68616C5F74696D2E6300704770B5FA
:1024C0000446006801694FF00005C943890715D427
:1024D000C168C943890711D4E91E01610120207632
:1024E000206880698007204602D0FFF7E7FF04E0FC
:1024F00000F098F8204600F096F8257620680169EB
:10250000C943490717D4C168C943490713D46FF0B9
:1025100004010161022020762068806910F4407F68
:10252000204602D0FFF7CAFF04E000F07BF8204607
:1025300000F079F8257620680169C943090716D4A7
:10254000C168C943090712D46FF008010161042072
:1025500020762068C0698007204602D0FFF7AEFFD2
:1025600004E000F05FF8204600F05DF82576206872
:102570000169C943C90617D4C168C943C90613D440
:102580006FF010010161082020762068C06910F406
:10259000407F204602D0FFF791FF04E000F042F8B0
:1025A000204600F040F8257620680169C943C90734
:1025B00008D1C168C943C90704D1891E01612046F9
:1025C00000F032F820680169C943090609D4C168DE
:1025D000C943090605D46FF0800101612046FFF769
:1025E000BFFE20680169C943490609D4C168C943CF
:1025F000490605D46FF040010161204600F016F84D
:1026000020680169C94389060BD4C168C94389069A
:1026100007D46FF0200101612046BDE87040FFF74C
:10262000A0BE70BD70477047FEF76EBD7047704723
:1026300090F839007047000038B50446006801681A
:10264000C26811F0010F02F4807204D01AB1E16B7C
:1026500041F00101E1630168C1F34002416901F009
:10266000010122B119B1E26B42F00402E263026897
:10267000C2F3800222B119B1E26B42F00202E263BE
:102680000268C2F3C00222B119B1E16B41F0080146
:10269000E1630168C068C1F3401100F0200019B186
:1026A00010B1204600F0AEFD20680168C068C1F39B
:1026B000C01100F0800019B110B1204600F0F8FE02
:1026C00021680868CA68C0F3801002F04002012542
:1026D00070B16AB1CA68204622F04002CA6094F81C
:1026E0003910322911D080F8395000BF00F0DEF9DE
:1026F000E06B002808D0206801684068009084F8EA
:1027000039502046FFF793FF38BD222180F8391059
:10271000ECE7000070B5040020D0A0693349002820
:10272000334A344B20681BD088420AD0904208D0EC
:10273000984206D040F207112FA001F0A5F8A06939
:10274000C8B1A069B0F5807F15D0B0F5007F12D078
:10275000B0F5407F0FD04FF4847109E0012070BDC7
:10276000884208D0904206D0984204D04FF4867137
:1027700021A001F089F8A06838B1B0F5805F04D0DD
:102780004FF487711CA001F07FF8E06920B140F29E
:102790000F1119A001F078F894F83900002520B93C
:1027A00084F83850204600F045F8022084F83900BB
:1027B0002068C16821F40051C160204600F076FD18
:1027C0002068016921F4904101612068416921F08C
:1027D0002A0141612068C16841F40051C160E5638C
:1027E000012084F83900002070BD0000003801404D
:1027F00000440040004800402E2E2F447269766548
:1028000072732F53544D3332463178785F48414CC0
:102810005F4472697665722F5372632F73746D33E0
:1028200032663178785F68616C5F756172742E63AF
:1028300000000000F0B50646374F03680024374813
:1028400002210322364D85B0BB4235D1836943F462
:10285000804383618069039200F480400490080201
:10286000CDE9000169462846FEF75AFA2815CDE958
:102870000004694628460294FEF752FA2A4D294878
:10288000C5E90004AC60EC6020202C61C5E905407E
:102890000002E8612846FEF775F808B1FDF728FF49
:1028A00075630022052125206E62FEF7F1FC2520CC
:1028B000FEF7BEFC05B0F0BD1C4FBB42FAD1C369A8
:1028C00043F40033C361C069039200F40030049004
:1028D0000420CDE9000169462846FEF721FA0820C8
:1028E000CDE90004694628460294FEF719FA0D481E
:1028F0000F4D283028601020C5E90104EC602C61E0
:102900006C61AC612846EC61FEF73CF808B1FDF75C
:10291000EFFE35636E62CDE70038014000100240E3
:1029200000080140580002407801002000440040A7
:10293000B001002070B5044690F83900012801D09C
:10294000122832D169B362B394F8380001282CD030
:10295000012084F83800A162A2850025E56394F87F
:10296000390012281FD0222084F83900636B1048E8
:102970009862636B0F48D862636B0F481863084610
:102980001346666B216802463046091DFEF7ACF817
:102990002068416941F04001416184F838500020CD
:1029A00070BD012070BD3220DEE7022070BD000046
:1029B000C5310008FB310008A53100080068054951
:1029C000884205D1044800220178806901F058B995
:1029D00070470000003801400800002070470000E8
:1029E0002DE9F047044690F8390099460D46012834
:1029F00001D0222858D12DB322B394F838000128F1
:102A000052D0012684F838600027E76394F8390033
:102A100022281AD05FF0120084F83900A284E284E0
:102A20004FF48058E08C4B46401EE084A0684FF085
:102A3000000240454FF08001204613D100F06BFDAD
:102A400008BB04E00120BDE8F0873220E4E72888D5
:102A50002168C0F308004860206908B16D1C08E0D7
:102A6000AD1C06E000F057FD68B9216815F8010BB0
:102A70004860E08C0028D5D14B46002240212046FA
:102A800000F049FD08B10320DDE794F83900322851
:102A900006D084F8396000BF84F838700020D2E78F
:102AA000222084F83900F7E70220CCE77047FEE7E0
:102AB00030B5244885B0816941F010018161816998
:102AC00001F010010491816941F020018161816967
:102AD00001F020010491816941F004018161816963
:102AE00001F004010491816941F00801816180696C
:102AF000022500F0080004904FF4005000900020E0
:102B0000CDE9010569461048FEF70AF94FF4E040A7
:102B100001240395CDE900040C4D69462846FEF7D3
:102B2000FFF8E020CDE90004694628460394FEF74B
:102B3000F7F8002247F2E0012846FEF7A9FA05B0AF
:102B400030BD00000010024000100140000C0140A8
:102B50000F4810B50D4901604FF4827141600021AA
:102B60008160C1604FF400720161C0E90512182252
:102B7000C0E90721416281620A21C162FFF7BAF907
:102B8000002801D0FDF7B4FD10BD00000030014069
:102B9000A0000020FEE7000070B5054600F020F818
:102BA000064CA070E178884203D000B1284600F0BE
:102BB0001FF8A078E070002070BD000038000020F1
:102BC00010B500F00DF805498870C8700020087035
:102BD000487000F00DF8002010BD00003800002003
:102BE0004FF400510148FEF727BA000000100140E1
:102BF0002DE9F0411A4C05004FF480414FF4005686
:102C00004FF4805706D0012D06D0022D11D0032D90
:102C100008D119E000220DE0002216E039462046D6
:102C2000FEF736FA0F480178417005700020BDE8C4
:102C3000F08101222046FEF72BFA01223146204680
:102C4000FEF726FA0022E9E701222046FEF720FAE5
:102C5000002231462046FEF71BFA0122DEE7000083
:102C6000000C01403800002070470907090E0028B9
:102C700006DA00F00F0000F1E02080F8141D704724
:102C800000F1E02080F8001470472DE9F0471D4660
:102C900090460E460446FEF731FA07465FEA080002
:102CA0004FF000084FF4005A4FF0010926D034E0ED
:102CB000681C23D025B1FEF721FAC01BA8421DD9FC
:102CC0002068416821F0E00141602068016821F03E
:102CD00040010160A06A504509D12068016821F4D3
:102CE000005101602068016841F40051016084F8DE
:102CF000519084F850800320BDE8F08720688068F8
:102D000036EA0000D4D10DE0681C06D0002DD7D0E3
:102D1000FEF7F4F9C01BA842D2D82068806836EAD2
:102D20000000F1D00020E7E710B50E48FFF7CAF821
:102D30000C480D494FF4006201604FF4827141600C
:102D40000021C0E9021292100161C0E905121822A7
:102D5000C0E90721416281620A21C162BDE81040D9
:102D6000FFF7C8B8A00000200030014001B50648B8
:102D70000122694603680548FFF7DEF9002801D003
:102D8000FFF7D2FF08BD000034000020A0000020A3
:102D90000EB54FF40F720F490FA000F079FC134DE0
:102DA00040F243264FF0FF3732460A4910A000F0A8
:102DB0006FFC3A466846696A00F0A6FE019C204610
:102DC000FDF7B8FB2146686A00F098FE012000F08C
:102DD00055FEE9E75D4F00083C3C2D444542554710
:102DE0002D3E3E2025734025643A0A00080000204D
:102DF0003C3C2D44454255472D3E3E202573402501
:102E0000643A6F6E65206C6F6F70210A0A000000D3
:102E100086B040F2CB122F492FA000F039FC334C82
:102E20004FF4E8794FF0FF384A462A4930A000F0C5
:102E30002FFC4546424604A9A06901F0E8FD9DF833
:102E400010007E28F0D12A4604A9A06901F0DFFD18
:102E50009DF810007E2804D12A4604A9A06901F03B
:102E6000D6FD9DF810005528DED12A466946A06996
:102E700001F0CDFD9DF800000E28D5D1A8462946C9
:102E8000206A00F007FE07463D46002607E0294677
:102E90006D1C4246A06901F0BAFD761CF6B29DF8A1
:102EA00000008642F3D3424604A9A06901F0AFFDB9
:102EB0009DF80010384600F007FD9DF8101088427C
:102EC000206A394602D100F065FEADE700F016FE3B
:102ED000AAE70000354F00083C3C2D4445425547C9
:102EE0002D3E3E2025734025643A0A00080000204C
:102EF0003C3C2D44454255472D3E3E202573402500
:102F0000643A6F6E65206C6F6F70210A0A000000D2
:102F10000EB540F21522134913A000F0B9FB174C6F
:102F20004FF407784FF0FF3742460E4914A000F0E7
:102F3000AFFB3A466846216A00F0E6FD3946019D3E
:102F4000606A00F0A7FD064601462846FDF7C6FB6D
:102F50003146606A00F01EFE2946206A00F0CEFD70
:102F6000E2E70000484F00083C3C2D4445425547ED
:102F70002D3E3E2025734025643A0A0008000020BB
:102F80003C3C2D44454255472D3E3E20257340256F
:102F9000643A6F6E65206C6F6F70210A0A00000042
:102FA00088B040F2A5121A491AA000F071FB1E4D1C
:102FB0001E4E1F4F4FF4FA6442F2107840F2F2397D
:102FC00040F2E47A40F6D63B4FF4D572104919A08E
:102FD00000F05EFB0320FFF7DFFD04A904A881E8F1
:102FE000E000FDF7A7FA204600F048FDADF8049098
:102FF000CDF80080ADF806A0ADF808B01548CDF8C2
:103000000A006846FDF74AFB204600F037FDDBE783
:10301000274F00083C3C2D44454255472D3E3E205D
:1030200025734025643A0A00666646406666064097
:10303000CDCC8C3F3C3C2D44454255472D3E3E2057
:1030400025734025643A6F6E65206C6F6F70210A9E
:103050000A0000009A99993F08B5084D4FF0FF34D7
:1030600022466946E86901F0D2FC9DF80010044848
:10307000FDF735FA012000F001FDF1E7080000201E
:103080003801002000F09DBE30B58FB001200090C7
:1030900000040024CDE901040225CDE907504FF4D6
:1030A000E01009906846FEF78DFB58B90F20CDE976
:1030B0000A056802CDE90C4002210AA80E94FEF729
:1030C00077F908B1FDF714FBFEF702FB4FF47A71B4
:1030D000B0FBF1F0FFF730F90420FFF7FBF8002216
:1030E0000F21501EFEF7D4F80FB030BD0D48016817
:1030F00041F00101016041680B4A114041600168E3
:103100000A4A11400160016821F480210160416890
:1031100021F4FE0141604FF41F0181600449C003A6
:1031200008607047001002400000FFF8FFFFF6FE45
:1031300008ED00E00148FFF7C2B90000E8010020F7
:10314000F0B50268144B154C154D4FF0804798426E
:1031500005D0B84203D0A04201D0A84203D122F04A
:1031600070064A683243984205D0B84203D0A04264
:1031700001D0A84203D122F44074CA6822430260FD
:103180008A68C2620A688262984201D10969016351
:1031900001214161F0BD0000002C0140000400400D
:1031A0000008004010B5406A0021C185C18401219A
:1031B00080F83910C16B41F01001C163FFF737FA95
:1031C00010BD000010B50146406A0968096889060B
:1031D0000ED40021C18501684A6922F040024A618B
:1031E00090F83910322906D05FF0010180F83910CB
:1031F000FFF7E4FB10BD1221F8E710B5406AFFF7B6
:10320000EDFB10BD10B590F83910222903D03229FA
:1032100001D0022010BD8168B1F5805F11D0016935
:10322000002901681FD0496801F07F03816A4A1CA8
:1032300082620B70C18D491E0904090CC18518D02A
:1032400030E00269816A002A0268526805D0D2B271
:103250000A80816A491C8162ECE7C2F308020A8095
:10326000816A891CF7E74A68816A4B1C83620A708D
:10327000E0E70168CA6822F02002CA6090F83910BD
:10328000322911D00168CA6822F48072CA600168CC
:103290004A6922F001024A615FF0010180F83910A9
:1032A000FFF78CFB002010BD1221F7E72DE9F0415C
:1032B000044640686D49884204D340F252716CA0C4
:1032C00000F0E2FAE06838B1B0F5005F04D040F2F7
:1032D000537167A000F0D8FA206950B1B0F5806F43
:1032E00007D0B0F5C06F04D040F2547160A000F078
:1032F000CBFA606930F00C0100D120B940F2557171
:103300005BA000F0C1FA20680169E26821F4405135
:10331000114301612169A06808436169084321687C
:10332000CA6841F20C639A430243CA60206841694B
:10333000A26921F44071114341615C492068642510
:10334000322688423CD1FEF7E1F900EBC00101EBE7
:10335000001061688900B0FBF1F7FEF7D7F900EBC8
:10336000C00101EB00106168B0468900B0FBF1F0CC
:10337000B0FBF5F06FF01801484307EB800106EB56
:103380000110B0FBF5F000F0F006FEF7BFF900EB1E
:10339000C00101EB001061688900B0FBF1F0B0FBE7
:1033A000F5F006EB0016FEF7B1F900EBC00101EBFA
:1033B000001061688900B0FBF1F7FEF7A7F93BE068
:1033C000FEF78CF900EBC00101EB00106168890089
:1033D000B0FBF1F7FEF782F900EBC00101EB001042
:1033E0006168B0468900B0FBF1F0B0FBF5F06FF01A
:1033F0001801484307EB800106EB0110B0FBF5F024
:1034000000F0F006FEF76AF900EBC00101EB0010D6
:1034100061688900B0FBF1F0B0FBF5F006EB001637
:10342000FEF75CF900EBC00101EB00106168890058
:10343000B0FBF1F7FEF752F900EBC00101EB001011
:1034400061688900B0FBF1F0B0FBF5F06FF0180196
:10345000484307EB800108EB0110B0FBF5F0216851
:1034600000F00F0030448860BDE8F08121AA4400DC
:103470002E2E2F447269766572732F53544D33325A
:10348000463178785F48414C5F4472697665722FA7
:103490005372632F73746D3332663178785F68616D
:1034A0006C5F756172742E6300000000003801408B
:1034B00090F83910122903D0322901D00220704728
:1034C0008168B1F5805F016A0BD04A1C0262026814
:1034D00009785160C18C491E0904090CC1840ED0C1
:1034E00017E009880268C1F30801516001690029E9
:1034F000016A02D0491C0162ECE7891CFBE7016804
:10350000CA6822F08002CA600068C16841F04001C8
:10351000C160002070472DE9F0471D4690460E46D9
:103520000446FDF7EBFD07465FEA08004FF000098F
:103530004FF0010808D030E0681C05D095B1FDF7C8
:10354000DDFDC01BA8420DD82068006836EA0000E7
:10355000F2D127E0681C20D025B1FDF7CFFDC01BBC
:10356000A8421AD92068C16821F08001C160206892
:10357000C16821F02001C1602068C16821F4807118
:10358000C1602068416921F00101416184F83980FE
:1035900084F838900320BDE8F0872068006836EA98
:1035A0000000D7D00020F6E70148FFF745B800003B
:1035B000F80000200FB42DE9FF4106460CAC0025B1
:1035C00009E05C290FD000F1010025290B9018D0EB
:1035D0003046FCF784FF0B9801780029F1D1BDE853
:1035E000FF015DF814FB401C0B9001786E2903D09D
:1035F000722915D10D2100E00A213046FCF76FFF3A
:103600000DE0017864290ED0732909D180CC03E044
:103610003046FCF764FF7F1C39780029F8D10B98FD
:10362000401C0B90D7E702CC00276846002920D029
:1036300007DA4FF02D028DF80020C1F1000100F1F2
:10364000010042F210734FF00A0C00BF91FBF3F23D
:1036500052EA070E06D002F1300700F8017B02FBA8
:103660001311012793FBFCF3002BEFDC05706F4671
:1036700009E030208DF800008DF80150F7E7304662
:10368000FCF72DFF7F1C39780029F8D1C7E7FEE74A
:103690000FB4054B10B503A9044A029800F018F8BE
:1036A00010BC5DF814FB0000E93800089C00002005
:1036B00002E008C8121F08C1002AFAD170477047FB
:1036C000002001E001C1121F002AFBD17047000059
:1036D0002DE9FF4F8BB09A460F460546002606E0BF
:1036E00025280BD052460D9990476D1C761C2878E2
:1036F0000028F5D10FB03046BDE8F08F0024A04679
:103700000122604900E0044315F8013F203B02FA22
:1037100003F00842F7D128782E2817D115F8010FA9
:1037200044F004042A280ED06FF02F022878A0F16C
:10373000300109290AD808EB880102EB410100EBAE
:1037400001086D1CF2E757F8048B6D1C2878692876
:103750003ED006DC0028CDD063280BD0642804D1ED
:1037600036E0732810D075284BD052460D999047FB
:10377000761C85E017F8040B8DF8000000208DF80A
:103780000100E946012003E057F8049B4FF0FF30A9
:1037900061074FF0000401D40AE0641C44450DDACF
:1037A0008442FADB19F804100029F6D106E0641C03
:1037B0008442FCDB19F804100029F8D1264404E007
:1037C00019F8010B52460D999047641EF8D257E044
:1037D00001CF4FF00A0B002802DA40422D2102E00F
:1037E000210504D52B218DF82410012103E0E107E8
:1037F00005D02021F7E70DF1200908910CE0002108
:10380000F9E701CF4FF00A0BF9E75946FCF7B7FD8E
:1038100001F1300209F8012D0028F6D1ADEB0900C5
:1038200000F1200B600701D44FF00108D84502DDFC
:10383000A8EB0B0000E000208046002406E009A869
:103840005246005D0D999047641C761C089884428E
:10385000F5DB04E0302052460D999047761CB8F114
:103860000001A8F10108F5DC05E019F8010B52464A
:103870000D999047761CBBF10001ABF1010BF4DC14
:103880006D1C34E7092801000B46024601A10D48D2
:10389000FFF790BE57726F6E6720706172616D6541
:1038A000746572732076616C75653A2066696C6523
:1038B000202573206F6E206C696E652025640D0ACB
:1038C0000000000038010020034610B50020024629
:1038D00006E000BF13F8014B521C2044C0B2D2B224
:1038E0008A42F7D310BD000010B50446C1B20348A8
:1038F0000022006801F09AF8204610BD2400002044
:10390000EFF30580002800D0012070479EB0FDF73E
:1039100003FCFFF7B9FBFFF7CBF84F48416941F0D3
:10392000010141614069002200F001001D90052164
:103930000F20FDF7ADFC0F20FDF77AFC00220521DA
:103940001120FDF7A5FC1120FDF772FC4448434906
:103950004FF4E13500240160C0E901540C26C46035
:10396000C0E904468461C461FEF7D4FE68B93C48EE
:103970003C4940300160C0E90154C460C0E90446DC
:103980008461C461FEF7C6FE08B1FCF7B1FEFFF723
:10399000DFF8FCF7BBFDFFF713F90122324930488D
:1039A000FEF7C8FF142231496846FCF71DFC0021D0
:1039B000684600F010FA2C4C2C4914226060143137
:1039C00005A8FCF711FC002105A800F004FA27491E
:1039D000A060142228310AA8FCF706FC00210AA8DE
:1039E00000F0F9F92149E06014223C310FA8FCF7FE
:1039F000FBFB00210FA800F0EEF91C492061142206
:103A0000503114A8FCF7F0FB002114A800F0E3F9F2
:103A1000164D60611C3DD5E90001CDE91901002179
:103A200019A800F0E1F8A061D5E90201CDE91B0178
:103A300000211BA800F0D8F8E061002105F110007A
:103A400000F02EF82062002105F1100000F028F8A7
:103A5000606200F01AF8FEE70010024000380140F2
:103A6000F80000200044004008000020B44E000888
:103A700001460020842900D0C81C704710B500B949
:103A8000012000F05FFC002010BD10B500F004FD27
:103A9000002010BD002802D0806800F01BB97047DC
:103AA0003EB50446002000900190029020680090EE
:103AB000606801900C2000F0E1FAA168002808601D
:103AC00019D0046000220421206800F0A1FDA16843
:103AD00009684860A168096870B1684600F02AF971
:103AE0000100A06800688160A068006803D100BF81
:103AF00000F0C8FB00203EBD0846F9E710B1806821
:103B000000F047B9802070472DE9FF410D000646BF
:103B100002951ED04FF000084446CDF80C80501C92
:103B20001CD002B11446FFF7EBFE2027002868687E
:103B3000694618D003AA091D00F02EFF012810D0F5
:103B4000CDF800800398C0B111494FF08050086053
:103B500013E0802000902A46019910E04FF0FF34D6
:103B6000E1E70097EEE700232246091D00F078FD0B
:103B7000012808D04CB1402000909DE8070086E85D
:103B80000700BDE8FF810097F7E70020F4E7000099
:103B900004ED00E013B582B004000FD000200090C7
:103BA000FFF7AEFE002860684FF0000310D06A46B1
:103BB00003A900F0ABFE012810D102E0802004B080
:103BC00010BD009860B107494FF08050086007E0D1
:103BD000002203A900F010FE012801D0FF20EEE72B
:103BE0000020ECE704ED00E003C8002200F010BD67
:103BF0002DE9FF410D004FF00006CDE901650746B4
:103C00001AD000240396501C1BD002B11446FFF7B3
:103C100077FE69464FF01008C8B103AA2846091D6F
:103C200000F0BAFE01280FD000960398D0B11349D6
:103C30004FF08050086015E0802031462A46009001
:103C400012E04FF0FF34E2E7CDF80080EDE700230B
:103C500022462846091D00F003FD012808D054B172
:103C6000402000909DE8070087E80700BDE8FF813D
:103C7000CDF80080F6E70020F3E7000004ED00E057
:103C800037B5054682B000200090140000D1012411
:103C9000FFF736FE4FF0000368B16A4603A92846D5
:103CA00000F034FE01280DD1009870B108494FF0A2
:103CB0008050086009E0224603A9284600F09CFDD8
:103CC000012802D0FF2005B030BD0020FBE7000036
:103CD00004ED00E070B5002604463546FFF710FEFF
:103CE00018B1FCF751FA064601E000F09DFA0021F8
:103CF000A26808E020690844824200D80020636876
:103D00001B5C53B1491C8A42F4D800BFFFF7F8FD91
:103D100060B13046FCF73FFA0AE0626801211154B5
:103D2000E2682168206100FB0215EFE700F098FAD5
:103D3000284670BD2DE9F04105464068C01C20F0C2
:103D40000307142000F09AF904001FD00026286809
:103D50002661C4E90207286800F090F9606088B124
:103D60002868784300F08AF9206040B1002002E022
:103D700061680E54401C29688142F9D806E06068E9
:103D800000F080FA204600F07DFA00242046BDE8CD
:103D9000F08178B171B102688A420BD8891AC26881
:103DA000B1FBF2F302FB131323B9B1FBF2F182680A
:103DB0008A4201D880207047406800224254104651
:103DC000704710B500F02CFF012803D0BDE810406B
:103DD00000F00CBC10BD30B5044685B00D46B0F9FE
:103DE0000800FFF745FE002104AA0090CDE901215B
:103DF0000391208A2B4682B2D4E9001000F04AFEDB
:103E0000012802D0002005B030BD0498FBE7000077
:103E100070B50B4C054620684560E0682168854216
:103E200005D2606BBDE87040091D00F0D9B9206B68
:103E3000091D00F0D5F9A06A854200D2A56270BDC7
:103E40003C00002070B5124E124C1AE000F04EFB00
:103E50003068D0B100F0CAFF00F0E6F9F068C5683C
:103E6000281D00F085F9A068401EA0606068401E13
:103E7000606000F0F5F9286B00F004FA284600F0C5
:103E800001FA60680028E1D170BD00F0AFFFF8E7EB
:103E9000EC0200203C00002030B4026C0B46002AEB
:103EA0000BD0C1681144C1604468A14201D30168CC
:103EB000C16030BC1846FCF797B930BC704770B58C
:103EC0001646026C0446002582B1C6B1E068FCF7D4
:103ED0008BF9E168206C091AE1602268914202D2F4
:103EE0006168081AE060022E16D01AE02068C0B996
:103EF000606800F003FF05460020606011E0A068E4
:103F0000FCF772F9216CA0680844A06061688842DF
:103F100007D32068A06004E0A06B10B1A06B401E26
:103F2000A063A06B401CA063284670BD10484FF4EE
:103F30007051420706D0C01D0D4920F00700411AFC
:103F4000C1F570510B4A00230144C2E9000308394E
:103F5000103A21F0070111604B600B600B1AC0E9A9
:103F6000001393604FF000405360D0607047000032
:103F70001403002084000020054C00BFFFF762FFFF
:103F80002068012801D900F0D1F900F003F9F5E724
:103F90002402002030B5114900E011460A6882422F
:103FA000FBD34B685C18844203D1406818444860D6
:103FB000084643681C18944209D1084C103C2468F8
:103FC000A24209D052681A4442600A68126802602C
:103FD000814200D0086030BD0460F9E78400002011
:103FE0000648016B096829B1016BC968C96849684D
:103FF000816270474FF0FF31FAE700003C0000207B
:1040000004484068401C02D0FCF7BEF8FEE7FCF70D
:10401000BBF8FEE78C00002070B5044600F004F900
:1040200004F124050AE0606A58B1284600F0A8FEB1
:1040300008B100F0AFF9A06C401EA064A06C00288D
:10404000F1DC4FF0FF36A66400F00AF900F0ECF85E
:1040500004F110050AE0206958B1284600F090FEEE
:1040600008B100F097F9606C401E6064606C002835
:10407000F1DC6664BDE8704000F0F2B82DE9F04173
:104080000546002700F032FA2A4E306808B9FFF7DB
:104090004DFFF068054242D1F5B30835680709D0F5
:1040A00005F00700C0F108000544680702D0FCF7DE
:1040B0006BF8FEE785B37068854230D81D48103034
:1040C00001460C6801E020460C466168A94202D214
:1040D00021680029F7D131688C4220D00768216817
:1040E000016060680837411B102909D9601942072F
:1040F00002D0FCF749F8FEE741606560FFF74AFF30
:1041000061687068401A7060B268904200D2B06016
:10411000F0680143002000E001E0C4E9000100F084
:1041200065FE780702D0FCF72FF8FEE73846BDE8B9
:10413000F0810000740000200449086818B1086884
:10414000026E521C02660868704700003C000020A6
:1041500010B5031F4FF080741C601B1F1960191FDE
:10416000024B0B60143940380A6010BD0140000852
:10417000D0E9013201699A60D0E901235A604A68A6
:10418000824201D182684A60002202610868401EB2
:10419000086070477047000001A10948FFF70ABA9C
:1041A0004170706C69636174696F6E2053746163F0
:1041B0006B204F766572666C6F77210A0D0A0000DE
:1041C0003801002000F108014FF0FF32C0E9011270
:1041D000C1600161002101607047002101617047E9
:1041E00030B50B685A1C02D000F1080202E00269E7
:1041F00004E02246546825689D42FAD953684B6012
:1042000099608A60516008610168491C016030BD95
:1042100042684A6093688B60936859609160086156
:104220000168491C0160704710B5FBF7ADFF0A48F3
:104230004168491C4160BFF34F8FBFF36F8F4068E7
:10424000012807D10548006810F0FF0F02D0FBF7E6
:104250009BFFFEE710BD00008C00002004ED00E095
:10426000074910B5486830B1401E486006D1BDE826
:104270001040FBF790BFFBF787FFFEE710BD000083
:104280008C00002070B500281DD00F4DA0F108044F
:104290006068E968084202D1FBF776FFFEE7226812
:1042A00012B1FBF771FFFEE78843606000F01EF972
:1042B00060686968084468602046FFF76BFEBDE8E7
:1042C000704000F093BD70BD7400002006484FF4AC
:1042D0007A710068B0FBF1F14FF0E020491E4161B6
:1042E00007210161704700009800002010B5FBF71E
:1042F00055FF0C49102809D300F1E02090F8F00395
:104300000A78904202D2FBF73FFFFEE706480068BA
:10431000896800F4E060884202D9FBF735FFFEE7C8
:1043200010BD00008C0000200CED00E004494FF0AF
:1043300080500860BFF34F8FBFF36F8F704700004E
:1043400004ED00E070B502001DD0114CE06A10B120
:10435000FBF71AFFFEE700F0C9F8E068851820684F
:10436000001DFFF705FF38B9206890F82C100120D8
:1043700088402169814321612846FFF749FD00F00B
:1043800035FD002803D1BDE87040FFF7CFBF70BDF9
:104390003C00002001490120C86170473C0000201A
:1043A00070B50D4650B1124C21681831FFF718FF57
:1043B0002068001DFFF7DCFE18B10AE0FBF7E4FE01
:1043C000FEE7206890F82C10012088402169814385
:1043D0002161681C05D0E0682844BDE87040FFF703
:1043E00017BD2168BDE870400248091DFFF710BFE6
:1043F0003C0000200003002070B5040039D01D4DA2
:10440000E06A2968C96A884233D2A069002804DBBF
:104410002868C06AC0F10700A061E16A164E01EB8E
:104420008101606906EB810188421FD1201DFFF7E1
:104430009FFE012150B9E06A00EB800256F822206D
:1044400022B92A6901FA00F082432A612868C06A09
:10445000E0622A6981401143296100EB800006EB8C
:104460008000211DBDE87040FFF7D2BE2868C06AF9
:10447000E06270BD3C0000202402002010B528B18D
:1044800004490A6A0260C968416010BDFBF77CFEFE
:10449000FEE700003C0000201FB5002400940194BA
:1044A0000294234680220DA10E48039400F0F2FAF4
:1044B000012804D000280FD1FBF766FEFEE7FBF7CA
:1044C00063FE09484FF0FF31816201214161C46000
:1044D000BDE81F4000F050B81FBD000049444C45E6
:1044E00000000000793F00083C0000200248C16A3B
:1044F000491CC162704700003C00002010B51C4CF4
:10450000E06A10B10120E06110BD0020E061206888
:104510004FF0A531006B02688A4208D142688A4296
:1045200005D182688A4202D1C068884204D02168DD
:1045300020683431FFF730FE20690E49B0FA80F070
:10454000C0F11F0000EB800051F820206AB101EBA0
:10455000800000F10802416849684160914201D140
:1045600049684160C868206010BDFBF70DFEFEE79A
:104570003C000020240200201CB519490878019055
:10458000FF20087008788DF800009DF80000154A9B
:1045900000F0500010700720906005E09DF800309A
:1045A0005B008DF80030401E9DF800301B06F5D4EE
:1045B000000200F4E0609060019808700A48016809
:1045C00041F470010160016841F070410160FFF742
:1045D0007DFE00205060FBF7A5FD00201CBD000003
:1045E00000E400E08C00002020ED00E010B5FBF7B7
:1045F000CBFD00F023FB18B104494FF08050086058
:10460000BDE810400020FBF7C6BD000004ED00E04F
:104610002DE9F04117460E46050017D0CEB105FB37
:1046200006F0401C5430FFF729FD040015D096B168
:1046300004F154002060C4E90F560121204600F027
:10464000A6F884F850702046BDE8F081FBF79CFD89
:10465000FEE70020E6E72460EDE7FBF795FDFEE7C7
:104660002DE9FF41002582B098460E46040001D096
:104670001EB107E0FBF788FDFEE7206C10B1FBF7E9
:1046800083FDFEE700F0CCFA002720B9049810B1B2
:10469000FBF77AFDFEE7FFF7C7FDA06B50B331468D
:1046A0002046E568FFF7F8FBB8F1000F10D0E56091
:1046B000606A38B104F1240000F062FB10B100BF61
:1046C000FFF734FEFFF7CCFD012006B0BDE8F08116
:1046D000A06B401EA063206810B9FFF72DFD60603D
:1046E00020690028EED004F1100000F049FB0128F9
:1046F000E6D0E7E7049808B11DB106E0FFF7B0FD8A
:104700001DE06846FFF7BAFE0125FFF7A9FDFFF798
:10471000EDFEFFF789FD606C401C00D16764A06C62
:10472000401C00D1A764FFF79BFD04A9684600F078
:1047300085F930B12046FFF76FFC00F057FB0020F1
:10474000C3E7FFF771FDA06B38B1FFF789FD204685
:10475000FFF762FC00F04AFB9DE7FFF781FD206850
:1047600030B9FFF761FD6068FFF746FEFFF778FD9F
:1047700004F124000499FFF713FE2046FFF74CFCD8
:1047800000F034FB002886D1FFF7D0FD83E770B539
:104790000D46040023D0FFF747FDD4E90F20216820
:1047A00002FB001161600021A1632168A1600A463B
:1047B000D4E90F01401E00FB01214FF0FF30E16002
:1047C0006064A06404F1100065B1FFF7FBFC04F124
:1047D0002400FFF7F7FCFFF743FD012070BDFBF756
:1047E000D3FCFEE721690029F5D000F0C9FA0128C1
:1047F000F1D1FFF79BFDEEE72DE9FF41002682B0E6
:104800001D468846040003D0B8F1000F03D007E02E
:10481000FBF7BAFCFEE7206C10B1FBF7B5FCFEE736
:10482000022D05D1E06B012802D0FBF7ADFCFEE7BD
:1048300000F0F6F9002720B9049810B1FBF7A4FCAA
:10484000FEE7FFF7F1FCA06BE16B884205D3022D78
:1048500003D00498C0B1D6B11DE02A464146204697
:10486000FFF72DFB616A31B104F1240000F088FAF2
:10487000012801D002E008B1FFF758FDFFF7F0FC76
:10488000012006B0BDE8F081FFF7EAFC1DE06846B4
:10489000FFF7F4FD0126FFF7E3FCFFF727FEFFF724
:1048A000C3FC606C401C00D16764A06C401C00D14C
:1048B000A764FFF7D5FC04A9684600F0BFF830B143
:1048C0002046FFF7A9FB00F091FA0020D9E7FFF797
:1048D000ABFCA06BE16B884210D1FFF7C1FC04F187
:1048E00010000499FFF75CFD2046FFF795FB00F0F0
:1048F0007DFA0028A5D1FFF719FDA2E7FFF7B0FC6C
:104900002046FFF789FB00F071FA9AE72DE9F041A4
:104910001D4616460F46040001D01FB107E0FBF705
:1049200033FCFEE7206C10B1FBF72EFCFEE7022DF6
:1049300005D1E06B012802D0FBF726FCFEE7FFF76C
:10494000D5FCFBF721FC8046A06BE16B884208D3C5
:10495000022D06D000244046FBF71DFC2046BDE892
:10496000F0812A4639462046FFF7A9FAA06C401C80
:1049700004D0A06C401CA0640124ECE7606A00280D
:10498000FAD004F1240000F0FBF90028F4D0002E46
:10499000F2D001203060EFE72DE9F04115460E46D8
:1049A000040001D01EB107E0FBF7EEFBFEE7206C30
:1049B00010B1FBF7E9FBFEE7FFF798FCFBF7E4FB20
:1049C0000746A06BE0B131462046FFF765FAA06BC1
:1049D000401EA063606C401C04D0606C401C60648E
:1049E00001240EE020690028FAD004F1100000F044
:1049F000C7F90028F4D0002DF2D001202860EFE79D
:104A000000243846FBF7C7FB2046BDE8F0813EB5E1
:104A10000C4601466846FFF7EBF8DDE90010102967
:104A200001D000203EBD207001203EBD10B5FFF733
:104A300027F908B1002010BD012010BD70B50D464A
:104A4000040019D0DDB1FFF7EFFB114AD1682868E7
:104A5000431C0FD02368126A934202D062688A42D4
:104A600010D96268891A81420CD2401A2860204607
:104A7000FFF704FD002406E0FBF786FBFEE7FBF7EB
:104A800083FBFEE70124FFF7EBFB204670BD00002F
:104A90003C0000202DE9FF5F5FEA000BDDE90F908D
:104AA0000E9E15468A4604D0072E05D3FBF76CFBF5
:104AB000FEE7FBF769FBFEE7A900884610B9084648
:104AC000FFF7DCFA070019D06C20FFF7D7FA0400D3
:104AD000384611D0A52241462063FBF797FB6FF0C3
:104AE0000301206B01EB8501084420F007077807DC
:104AF00007D0FBF749FBFEE7FFF7C4FB4FF0FF349D
:104B000086E051463546002022180B5C82F834308E
:104B10000A5C12B1401C2028F6D3002084F8530010
:104B2000072D00D30625E562C4E917508046201DF5
:104B3000FFF753FB04F11800FFF74FFB2461C5F1A9
:104B400007016462A161C4F8648084F868805946F2
:104B50003846039AFFF7FCFA2060B9F1000F01D044
:104B6000C9F80040FFF760FB2B4DA868401CA86007
:104B70002868DFF8A88010B1686940B32CE02C6089
:104B8000A868012828D1002707EB870108EB8100DE
:104B9000FFF718FB7F1C072FF6D320488C30FFF758
:104BA00011FB1E48A030FFF70DFB1C48B430FFF787
:104BB00009FB1A48C830FFF705FB1848DC30FFF73F
:104BC00001FB16488C3028631430686304E02868C1
:104BD000C06AB04200D82C60686A401C6862606598
:104BE000E16A01202A6988401043286101EB8101B4
:104BF00008EB8100211DFFF70BFB0124FFF730FBC1
:104C0000686928B12868C06AB04201D2FFF78EFBFC
:104C100004B02046BDE8F09F3C00002024020020A4
:104C20000548416919B1C06A18B1002070470120D8
:104C300070470220704700003C0000202DE9F04141
:104C40002C4C0026E06A40B1A069401CA061E069DC
:104C500000B101263046BDE8F081E068401CE0600C
:104C6000E76877B9206B006810B1FBF78DFAFEE7B3
:104C7000206B616B21636063206A401C2062FFF738
:104C8000AFF9A06ADFF87080874209D3206B006813
:104C900080B1206BC068C568686887420DD2A06289
:104CA0002068C06A00EB800158F821000128CED9A5
:104CB0000126CCE74FF0FF30F1E7281DFFF758FA47
:104CC000A86A18B105F11800FFF752FAE96A012045
:104CD000226988401043206101EB810108EB8100CB
:104CE000291DFFF795FAE86A2168C96A8842CDD381
:104CF0000126CBE73C0000202402002070B5040010
:104D00004FF0000136D01C4D2868844202D0FBF7DA
:104D10003BFAFEE7206E38B1401E2066E36DE26A82
:104D20009A4227D018B125E0FBF72EFAFEE7201DA6
:104D3000FFF71EFA114A012150B9E06A00EB800327
:104D400052F8233023B92B6901FA00F083432B6119
:104D5000E06DE062C0F10700A061E06A2B6981406C
:104D60001943296100EB800002EB8000211DFFF751
:104D70004FFA0121084670BD3C00002024020020AB
:104D80002DE9F041C068C468ACB104F118000746D1
:104D9000FFF7EEF9134DE86A012678B1394612485B
:104DA000FFF736FAE06A2968C96A884217D90120F4
:104DB000EE61BDE8F081FBF7E7F9FEE7201DFFF7A4
:104DC000D7F9E16A2A6906FA01F01043286101EB7C
:104DD00081000549B43901EB8000211DE0E7002086
:104DE000E7E700003C000020D80200202DE9F04752
:104DF000274C0026E06A38B1FFF716FAE06A401E39
:104E0000E062E06A18B13DE0FBF7BEF9FEE7A16899
:104E1000204D012079B3A5F1B40980462868E8B196
:104E2000E868C76807F11800FFF7A2F9381DFFF717
:104E30009FF9F96A226908FA01F01043206101EB39
:104E4000810109EB8100391DFFF7E2F9F86A216859
:104E5000C96A8842E2D3C4F81C80DFE7A06958B170
:104E60004546A06940B1FFF7E9FE00B1E561A069E0
:104E7000401EA061F5E705E0E069012802D10126A6
:104E8000FFF754FAFFF7ECF93046BDE8F087000071
:104E90003C000020D802002080000000010000003B
:104EA0000002000001000000040000000E000000ED
:104EB00030000020A44F0008A12F0008FFFF0000D1
:104EC0000000000080000000944F0008112E000830
:104ED0000000000000000000A0000000B04F00082B
:104EE000112F000801000000000000000001000078
:104EF000CC4F0008912D00080200000000000000C7
:104F0000A0000000C04F000859300008FFFF00005B
:104F100000000000800000005072696E74537461DC
:104F2000636B526573740053746172744D61696E82
:104F30005461736B005374617274446174615061A5
:104F40007273655461736B0053746172744461745D
:104F50006150726F636573735461736B0053746156
:104F60007274446174614F75745461736B0045725F
:104F7000726F725F48616E646C65720000000000C1
:104F800000000000010203040607080900000000F9
:104F9000010203044461746150617273655461736A
:104FA0006B0000004D61696E5461736B000000007E
:104FB0004461746150726F636573735461736B0005
:104FC0005072696E745461736B00000044617461C7
:104FD0004F75745461736B00F84F00080000002097
:104FE000A0000000B036000898500008A000002083
:104FF00078420000C03600080000000000000000F9
:1050000000000000000000000000000000000000A0
:105010000000000000000000000000000000000090
:10502000000000000000000000000000E803000095
:105030000000000000000000000000000000000070
:105040000000000000000000000000000000000060
:105050000000000000000000000000000000000050
:105060000000000000000000000000000000000040
:105070000000000000000000000000000000000030
:105080000000000000000000AAAAAAAA0000000078
:0850900000A24A040000000028
:04000005080000ED02
:00000001FF
